:1000000000800010FD00000007120000091200002F
:1000100000000000000000000000000000000000E0
:100020000000000000000000000000000B120000B3
:1000300000000000000000000D120000ED52000062
:100040000512000005120000051200000512000054
:100050000512000005120000051200000512000044
:100060000512000005120000051200000512000034
:100070000512000005120000051200000512000024
:100080000512000005120000051200000512000014
:100090000512000005120000051200000512000004
:1000A00005120000051200000512000005120000F4
:1000B00005120000051200000512000000000000FB
:1000C0008C0E010000010010A00000008C0E010049
:1000D00000000020000000008C0E01000040002005
:1000E00000000000A0010010C42D0000000000204E
:1000F00000000000004000200000000010B5104C7F
:10010000104B9C4206D2A2686168206801F07FF81B
:100110000C34F5E70C4B9C4205D26168206801F075
:100120007FF80834F6E700F0D7FF084B002B02D029
:1001300000E000BF03E005F04FFA00F0F3F8FEE73F
:10014000C0000000E4000000FC000000000000000F
:1001500010B5064C2378002B07D1054B002B02D09D
:10016000044800E000BF0123237010BDA00100106F
:10017000000000008C0E0100084B10B5002B03D0CE
:100180000749084800E000BF07480368002B00D17A
:1001900010BD064B002BFBD09847F9E7000000008C
:1001A000A40100108C0E0100A0010010000000004E
:1001B000036810B50400013304D12C220549064818
:1001C00000F032FD636960681B681840431E984167
:1001D00010BDC04672A00000BCA0000070B50400B5
:1001E0000D001822002105F05AFA2900200000F025
:1001F00082FD200070BDFFFF012310B54A080E4CA0
:100200001A4022540D4C8A081A4022540C4CCA0839
:100210001A4022540B4C0A091A4022540A4C4A092B
:100220001A4022548A09094C1A402254C909084A22
:100230000B40135410BDC046100200107D02001088
:10024000F4010010BC0100106102001080020010D7
:100250008302001070B50B4C0B4D2378C1B2207097
:1002600000202B70FFF7C8FF2378297802209943DC
:10027000FFF7C2FF2B78217801209943FFF7BCFFDD
:1002800070BDC0467C020010D801001010B519489E
:10029000FFF78EFF0400601E844117486400FFF7DB
:1002A00087FF002801D004231C431448FFF780FF78
:1002B000002801D008231C431148FFF779FF0028CC
:1002C00001D010231C430F48FFF772FF002801D014
:1002D00020231C430C48FFF76BFF002801D040236C
:1002E0001C430A48FFF764FF002801D080231C4309
:1002F000200010BDDC01001048020010C0010010F9
:10030000300200101402001064020010F801001006
:10031000042210B5024B00201A7002F0E1FE10BD5D
:1003200080030010F7B5012402F0A4FA3A4BFF2035
:100330001C7002F0C5FB04F0F1FF05F0F5FB374D32
:1003400037482C7003F0DCFFB02200210427354B26
:10035000354E1A70354B423A1A700800344A3770DD
:1003600003F0D2FD02F014FA002852D058230022E4
:10037000009311001633100002F03CFB0028F1D06E
:100380002C4C2078FFF782FF2070FFF763FFFFF708
:10039000BFFF294B5B78002BE4D02B780133DBB215
:1003A000032B00D100232B702C78012C1BD0002CA8
:1003B0000AD0022CD6D12148347003F0A1FF0023CB
:1003C0001F49204C204A1DE008232048337003F0C9
:1003D00097FF1B4A1E481C4B01198978115501349F
:1003E0009C42F9D1BEE71B48377003F089FF002318
:1003F0001349194C144AE0188078C85401339342C9
:10040000F9D1AFE7E0188078C85401339342F9D1AD
:10041000A8E70120FEBDC046790300108E0500103C
:1004200080EC000030010010800300102C0100104F
:10043000EC9F00002C02001010020010A6C6000065
:1004400007060010D4A00000D02500009EEC00009C
:10045000AEC600000C7A00001A7A000010B51048F1
:1004600001F030FD0F491048FFF7B8FE0F49104862
:10047000FFF7B4FE0F491048FFF7B0FE0F491048D0
:10048000FFF7ACFE0F491048FFF7A8FE0F491048D0
:10049000FFF7A4FE0F491048FFF7A0FE10BDC046AD
:1004A0006002001084120100C001001070080100F9
:1004B0004802001088140100DC010010941A0100A9
:1004C000F80100106C06010030020010C432010077
:1004D000140200107C0E01006402001010B501002F
:1004E000014800F09BFD10BD3C03001010B5FF213A
:1004F000024800F093FDC0B210BDC0463C0300109E
:10050000F8B543B204000D00002B07DA0021772074
:10051000FFF7F6FF012831D87F231C40A02688234F
:1005200080279B013606F750FFF7E0FF8A239B01E7
:10053000F750FFF7DBFF2000FFF7D0FF280EFFF793
:10054000CDFF280CC0B2FFF7C9FF280AC0B2FFF7E1
:10055000C5FFE8B2FFF7C2FF9520402C03D09438C6
:10056000482C00D18630FFF7B9FF0A24FFF7BEFF01
:10057000030603D5013CE4B2002CF7D1F8BDFFFF20
:1005800073B58823A02480223F4D9B012406E250AE
:1005900028003E4900F038FD28000022082100F024
:1005A00027FD842364259B01E358013DEDB2FFF74D
:1005B0009DFF002DF9D129004020FFF7A1FF040085
:1005C00001284BD1D52148204900FFF799FF012888
:1005D00015D1FFF78BFF01AC28550135042DF8D15B
:1005E000A378012B3AD1E378AA2B37D1284D80216B
:1005F000E920C905FFF784FF011E11D115E029008C
:10060000E920FFF77DFF4126012801D80224E926D1
:10061000204D00213000FFF773FF002820D116E0A5
:10062000013DADB2002D19D0E1E77A20FFF768FF58
:10063000002813D10500FFF759FF60550135042D3F
:10064000F9D123780C245B060FD42C000DE0802117
:1006500050208900FFF754FF002806D0002404E052
:10066000013DADB2002DF9D0D3E70B4BA0221C7099
:10067000882380219B011206D150FFF737FF60428B
:100680006041C0B276BDC0463C030010002D310170
:10069000E02E0000A861000086020010F8B51D00E1
:1006A000244B07001B7816001B0700D44902512079
:1006B000FFF726FF002801D0012431E01E4CFFF790
:1006C00015FFFF2804D1013CA4B2002CF7D1F3E7B9
:1006D000FE28F1D1194C641BA41BA4B2002E07D133
:1006E000002F11D0013DADB201353E007D1904E06F
:1006F000013EFFF7FBFEB6B2F0E7FFF7F7FE307002
:100700000136B542F9D105E0013DADB2FFF7EEFE8D
:10071000002DF9D1013CA4B2FFF7E8FE002CF9D17D
:100720008823A02280219B011206D150FFF7DEFE14
:100730002000F8BD860200103075000002020000A3
:10074000064B1A68831ED168002002398B4203D2FF
:1007500050784343906918187047C04688020010CB
:100760000F4B10B51A68002303808368040018003B
:10077000012B13D0D16801208B420FD2002B03D163
:100780001178032900D15369E360002B03D01800CE
:10079000FFF7D6FF00E050692061002010BDC04681
:1007A00088020010F0B5040085B0012854D92C4B04
:1007B0001D68EB6898424FD22E78022E32D0032E5D
:1007C00038D0012E48D181B24B08C91889B24B0AE2
:1007D0000193244BCA05D20D296903AF9A4204D074
:1007E000019B3800591802230EE0019B380059186C
:1007F0003300FFF753FF021E2ED12969019B0131FF
:10080000C918330002A80530FFF748FF002823D19C
:100810007B7838781B0203431811E2071DD41805B2
:10082000000D1AE02B69C2B2010AC918520003ADCB
:10083000330007E07F22042329690240C4099200A3
:10084000611803AD2800FFF729FF002804D168785C
:100850002B780002184300E0012005B0F0BDC0462F
:1008600088020010FF01000070B504880500013403
:10087000A4B2002C01D1032322E00369002BFAD09B
:1008800022071BD101330F4A0361C0681668002894
:1008900003D1B388A342EED910E073782209013B5B
:1008A0001A420BD1FFF77EFF0123984208D9F36863
:1008B0009842E0D2E860FFF743FF286100232C80D4
:1008C000180070BD88020010F7B504000D002B78E9
:1008D000202B01D10135FAE72F3B5A425341002723
:1008E000ED18A7602B78202B01D901972EE020006E
:1008F000FFF736FF404B06001B689B681F7078E0CF
:10090000009B1B78002B68D00822009BDB7A1340E9
:100910005BD162680099581CC95CD35C994254D180
:1009200003000B28F6D1D37A002B62D13B6898687C
:10093000C37ADB0656D5437D017D1B020B43C27E85
:100940001904837E120213430B43A3606068020004
:1009500003000B32934203D100220821130013E05D
:10096000202119700133F5E72F2B12D02E2B3BD00D
:1009700091420ED91F00613F192F01D8203BDBB2F5
:10098000571C8354FAB233005E1CEB5CF6B2202B8A
:10099000EAD8AD192026019A9E425241C272200027
:1009A000FFF7DEFE061E16D1134F3B689B680093CF
:1009B0000F23228821691A40520111330098FFF752
:1009C0006DFE00289CD0012613E02000FFF74CFFAD
:1009D0000028EDD00600032E0BD163680326DB7AD6
:1009E000002B06D1042604E00829D2D10A000331E5
:1009F000C9E73000FEBDC0468802001070B5164B36
:100A000001001C6890B00620002C23D00023A370A6
:100A10006B4608ADA56003A80493FFF755FF0028B7
:100A200018D12B780330002B14D01023EE7A1E40FF
:100A300010D16B7D297D1B02EA7E0B431904AB7E2E
:100A4000120213430B4363620F9B300023620123A6
:100A5000E661A37010B070BD880200102F4BF7B58F
:100A60001C68002307000D000192138006209C42A1
:100A700053D0A3780138DB074FD5236AE2699B1A6C
:100A80008B4200D29DB20097002D45D0E669F30558
:100A90001BD1700A617805F0D5FA00290BD1002E20
:100AA00001D1606A02E0A06AFFF77CFE01282FD91D
:100AB0000023A062E370A06AFFF742FE002827D05F
:100AC000E3785A1C1818E270E062E3692E1CDA051C
:100AD0008023D20D9B009B1A9BB29D4200D91E1C05
:100AE000B6B2381E00D000983300E16AFFF7D6FD99
:100AF00000280DD1E369AD1B9B19E361009BADB2EA
:100B00009B190093019B1B88F618019B1E80BBE775
:100B100000230120A37000E02800FEBD8802001021
:100B2000294BF7B51C680623002C4AD0A278013B5C
:100B3000D20746D5256A854200D905000022E3691F
:100B4000E261954238D066787602002B12D03100EF
:100B5000681E5F1E05F0F0F931000190380005F0C5
:100B6000EBF9019B834205D373423B40E361ED1AED
:100B7000A06A01E0606AA062B5420CD9FFF712FEDC
:100B800001281BD9E368984218D2E369A0629B1937
:100B9000E361AD1BF0E7E3695B19E361FFF7D0FDAB
:100BA00000280BD06B0ADAB2ED0501D1E27003E048
:100BB0000132C318E270E362002302E00023A37055
:100BC00001331800FEBDC0468802001030B5154B39
:100BD00004001B688DB00620002B20D004AD9D6062
:100BE00001AB63602000FFF76FFE002815D12B7862
:100BF000002B0FD0EB7ADB0601D404200FE06B7DD5
:100C0000297D1B020B43EA7E1904AB7E12021343BB
:100C10000B43A3602000FFF7A3FD0328EDD00DB028
:100C200030BDC0468802001010B513000A00010054
:100C3000014800F031F810BD94EE000000B589B015
:100C400072B6124902A800F070F8029B01930133BA
:100C500004D124220E490F48FFF7E6FF059B039AB3
:100C600096201A60019200F018FA029B019301335A
:100C700004D1242206490748FFF7D6FF039A069BB2
:100C800096201A60019200F008FADEE7382302008D
:100C900072A00000BCA000000FB4012010B504F049
:100CA00085FCFFFF036870B504000D00013304D11B
:100CB000242206490648FFF7B7FF6368002D01D0DC
:100CC000E26800E02269136070BDC04672A00000B7
:100CD000BCA0000070B50D000400160000F09EFBE3
:100CE0006B1C07D00021200000F0C0FB3100200069
:100CF00000F0B6FB70BD10B50122FFF7EBFF10BD91
:100D000070B50D000400160000F088FB6B1C0BD0C2
:100D100031002000FFF7C6FF0121200000F0A6FBF4
:100D20000021200000F09CFB70BD10B50022FFF7F1
:100D3000E7FF10BD10B50400034B083303601C30FF
:100D400000F06EFC200010BDC8EE000010B50400DD
:100D5000FFF7F0FF200000F06DFA200010BDFFFF4C
:100D6000036810B50400013304D12C22054906485C
:100D7000FFF75AFF636960681B681840431E98417B
:100D800010BDC04672A00000BCA0000070B50500F8
:100D900004000E4B0E00083308C52800182200215D
:100DA00004F07DFC002320003100E36123626363D3
:100DB000A363E364064A23001C3000F0CFFB280045
:100DC0003100FFF798FF200070BDC046C8EE00005C
:100DD000390E000010B50430FFF7C2FF10BD03004C
:100DE0000A0010B51C300121002A04D01A6200222A
:100DF0005A630132110000F027FC10BD030010B54A
:100E00000A001C30002903D000229963DA64013201
:100E1000022100F019FC10BD436910B50100002B40
:100E200004D10368002B06D0984704E0006800282E
:100E300001D00431984710BD10B5012903D0022913
:100E400004D1383000E02030FFF7E6FF10BDFFFF8F
:100E500010B50400431C12D00B685A1C0CD09C42E5
:100E600008D12000896800F015FC0021200000F066
:100E70002DFC04E00C31EFE70148FFF70DFF10BD3A
:100E8000D8EE000010B5030088420AD00B00421CC7
:100E900007D003004A1C04D00348FFF7FDFE0123DE
:100EA0005B42180010BDC046E9EE00000B685A1CFA
:100EB00005D0834201D1486802E00C31F6E7180002
:100EC0007047FFFF10B50400431C07D0FFF7EEFF8B
:100ED0000400431C02D10248FFF7DEFE200010BDD3
:100EE000FAEE0000074A13681818EFF308818842E9
:100EF00005D30C220120044B40421A6001E010602F
:100F00001800704704010010602F001010B5002871
:100F100001D0FFF793FEFEE7064B10B51B680400F7
:100F2000002B00D09847044B1B68002B01D02000F9
:100F3000984710BD0801001014010010094B10B5AE
:100F40001B680400002B04D09847002801D1FFF74C
:100F5000E3FF054B1B68181E00D09847002C00D0FB
:100F6000206010BD0C01001010010010704710B57A
:100F7000040000F05FF9200010BDFFFF73B504000E
:100F80000E480025083020600820E0600C48261D2F
:100F9000606106986560257225610090300000F060
:100FA00003FD2B0030002269E16800F07DFD300078
:100FB000616900F0AFFD200076BDC04638EF00004B
:100FC00040420F0070B5094D04002B6883420BD0DE
:100FD000061D0269C1680023300000F065FD6169EB
:100FE000300000F097FD2C6070BDC0468C020010F0
:100FF0000261002210B5034BC1601A60FFF7E2FFE7
:1010000010BDC0468C020010002210B5024B416199
:101010001A60FFF7D7FF10BD8C02001070B50D00ED
:101020000400FFF7CFFF2900201D00F0B7FD70BDC1
:10103000036870B5DB680400984763685A682368E2
:10104000002A02D19B68984713E05B6815689847AF
:1010500063682D1A5A68002D07DC916859601B6877
:10106000002BEAD050689847E7E7236810681B69AF
:10107000984770BD10B50248FFF7DAFF10BDC046B3
:1010800060EF000070B5040000F0C4FD050000F042
:10109000C1FD401BA042FAD370BDFA2310B59B00DE
:1010A0005843FFF7EFFF10BD70B50A4CA568A36861
:1010B0002A00002B0AD180225E5952059A18043367
:1010C0001660C02BF7D180225205A260103080003C
:1010D000815070BD00ED00E07FB580203F494002A7
:1010E000CA6F8E240243CA672322002020253C4B6E
:1010F0003C499A60223A0A603B49A4000A6018629F
:1011000019593A4A114001910199A943C825019101
:1011100001992D02294319510090354800998142C7
:1011200004D8C046009901310091F7E70121002061
:1011300019645964586459645C6C29480C42FBD0AA
:101140008E218026C825890044582D02144003941E
:10115000039C34430394039C2C4344502324846015
:10116000445822400292029CB4430294029A2A43B9
:1011700042500120DC681A4901220442FAD00320BF
:10118000086700204A67486710004A675C6F144A86
:1011900001210442FAD08E20916780001558154C29
:1011A0002C4014501558144C2C40145000209164BD
:1011B000D164D064D164DA6C0A42FCD02321084A9D
:1011C0001161012259691142FCD000220B4B1A60B7
:1011D0001A600B4B01321A607FBDC0460480044088
:1011E00000800440F0400440F4400440FF2500002B
:1011F000C3090000FFFBFFFFFFFEFFFFC0800440AC
:10120000C88004407047704770477047704700239C
:1012100010B5934203D21C585C500433F9E710BD5B
:1012200000231A008B4202D21A500433FAE77047A7
:101230000020704710B504F0FFF910BD13B501216F
:101240000F4B9A68120B12039A6002789C689140C7
:101250002143996099680B480143996018690849CE
:10126000019001980028F9DA08329200535801934E
:101270008B685B005B088B6001980004000D16BD55
:1012800000C001400000088470B50600FFF7D6FFDB
:1012900004003000FFF7D2FF05003000FFF7CEFF5B
:1012A000AC4202D923002C001D000300A84200D943
:1012B0002B0020009C4200D2180070BD73B50C00BA
:1012C000214D060029002000FFF7FCFDC0B2307060
:1012D000FF2804D135221D491D48FFF7A5FC200039
:1012E0002900FFF7B5FD80221A4BE405E40DE41850
:1012F000236819499343B9322360FF328858174B4A
:10130000034010200193019B8343C8200193019B5C
:10131000000203438B508021114A8901D36F0B4394
:10132000D367104B1049186804F006FE8023DB05D4
:101330001A000138C0B20D49184308600B68134009
:10134000FCD10A4A136073BDCCEF000068EF0000C7
:10135000B3EF00000040044000800440FF2500007F
:10136000048004401801001020A1070000C00140C3
:1013700010B5FFF789FF05F029FE024905F022FBB1
:1013800010BDC0460108803910B50400431C04D1CB
:101390001E2217491748FFF747FC174B1A68002A07
:1013A00006D101321A60154A1549D36F0B43D36732
:1013B0000122002C12D0134B9C420FD0124B9C42A6
:1013C0000CD0124B9C4209D0114B9C4206D0114BC1
:1013D0009C4203D0104BE1184A424A4120001100C0
:1013E00000F058F90120A404E40EA04010BDC0464E
:1013F00068F00000C1A000009802001004800440C2
:1014000040000100281400002C16000030180000D5
:10141000341A0000381C0000C4E1FFFF70B505005D
:101420000C0029604B1C11D00800FFF7ADFF2414FD
:10143000074BA400E318EB60064B6860E3182B61D0
:10144000054BE3186B61054BE418AC6070BDC046FA
:10145000002200A0802200A0002100A0002000A007
:1014600010B5006800F032F910BDFFFF036870B5D9
:1014700004000D00013304D1432209490948FFF754
:10148000D3FB002D06D0012D09D1A2686368116835
:101490000B4303E0A268616813688B43136070BD5F
:1014A00068F00000BCA00000F7B501210D008540E8
:1014B000134C636A2B4221D0124B8600F0580193E3
:1014C00000281BD023682B4218D163682B4206D01A
:1014D000E3692B4203D00C4B1B689847E5612369F5
:1014E000074F2B4209D03B6A2B4206D0064B019A8C
:1014F0001B680221905998473D626562F7BDC0465E
:10150000004000A0A00200109C02001010B50020B6
:10151000FFF7CAFF10BD10B50120FFF7C5FF10BDD2
:1015200010B50220FFF7C0FF10BD10B50320FFF774
:10153000BBFF10BD10B50420FFF7B6FF10BD10B5FE
:101540000520FFF7B1FF10BD10B50620FFF7ACFF77
:1015500010BD10B50720FFF7A7FF10BDF7B50500B8
:101560002748814202DD0120404248E02548264CC0
:1015700002600020820016590096002E3BD11351C4
:10158000224C2860E36F224F224E3B43E3671F2427
:101590008B0349120C401821A44604009B0F5943A9
:1015A0005E346144A400A151812101248900715855
:1015B0009B000F00210081400F4339008127BF00AD
:1015C000F151A021802609065B18B6019959270020
:1015D000019161468F40019940B2B94399510E4B38
:1015E000D158FFF761FD1F222B68009813409C40E3
:1015F0000A4B1C6003E001300828BBD1B3E7FEBDF5
:10160000131102009C020010A0020010048004408C
:101610008000090000800440B0F0000000E100E01C
:1016200000210368064A9B0010B5995001228121D0
:101630000068044C8240890063589343635010BD96
:10164000A00200100080044003680120984070B59B
:101650000F4C2368034200D16062C54326680C4BDF
:101660002E402660012909D1002A03D05A68104370
:1016700058600CE05A6815405D6008E0002A03D00D
:101680001A691043186102E01A6915401D6170BDA6
:10169000004000A070B504000D00431C04D11522C9
:1016A00007490848FFF7C0FA074BE405E40DE418C2
:1016B000072322681D409A431543256070BDC0462C
:1016C000D0F00000C1A000000040044070B504004C
:1016D0000D00431C05D11D220F491048FFF7A4FA45
:1016E00006E081231B01984214D00D4B984211D083
:1016F0000C4BE405E40DE4182368042D04D180228A
:10170000D2001343236005E01822ED0093431540F7
:101710001D43256070BDC046D0F00000C1A0000090
:10172000140A00000040044070B50C1C05000021A4
:10173000201C04F0C7FD002809D1FE21201C8905CA
:1017400004F0D4FD002803D0FE24A40500E000240A
:1017500080232D689B00E85805F038FC211C05F01B
:1017600031F904F0D7FD81239B00E85070BD802340
:10177000F7B5812704689B00E258BF00E059E150AB
:1017800001920D0005F022FC061C019805F01EFCDC
:10179000011C301C04F04CFF061C280005F0CEFB99
:1017A000011C301C05F00EF904F0B4FDE051F7BD4A
:1017B000F7B50F00060050493800FFF783FBC3B2AE
:1017C0000500FF2B02D14D48FFF766FA4C4B012173
:1017D0001A78019310000840031E04D00A410B0040
:1017E0000A4200D081E0012421009940019A454835
:1017F000127873600A4301990A70434A99008A5823
:1018000009333260C26F1100802212061143C16792
:101810002000984003003D4A38005268364913437F
:101820003A4A5360FFF714FB3768394A3B68394935
:1018300013430C223B607B6813437B607A68364B12
:1018400013407B607B680193344B186804F074FB91
:10185000FE2301381B0140011840019B18437860AA
:10186000E8B207281DD804F05DFB040A1016040A2C
:101870001016A023DB00FC500222294B10E0A1230C
:10188000DB00FC500222274B0AE0A223DB00FC50C5
:101890000222254B04E0A3230222DB00FC50234B51
:1018A000FA508022C12352019B00FA500123C0222A
:1018B0005B4292001E49BB500C32B950043ABB50F7
:1018C00080231C499B00F950FB58053A9B08FF3ABE
:1018D000BB5004227B68300093437B60FFF747FFD7
:1018E00030000021FFF720FFF7BD1348FFF7D4F9C0
:1018F00001235B4277E7C04618F1000084F1000045
:10190000C002001004800440B0F1000000800440D8
:101910000100060040420F001FF0FFFF18010010F9
:10192000040500000C050000140500001C05000063
:1019300001100000204E00009EF1000080210A4AA4
:10194000C905D36F80200B430121D367074B1A6869
:101950000A431A6000229A601A6802431A601A68E1
:101960008A431A607047C046048004400040024029
:10197000024B18680006C00F7047C0460040024086
:10198000014B98687047C0460040024010B5802463
:10199000044B1968A143196098601A6822431A60C1
:1019A00010BDC04600400240F0B5334E87B00091F4
:1019B00004003100009801920293FFF783FA2F4D43
:1019C000070029000198FFF77DFA2D49039002983E
:1019D000FFF778FA2B4904900C98FFF773FA0399F4
:1019E00005903800FFF74EFA059907000498FFF7B5
:1019F00049FA01003800FFF745FA2060431C04D182
:101A0000482221492148FFF70FF92368204A9342D1
:101A10000FD0204A934219D180201F49C002CB6FBA
:101A20001E4A0343CB6701211D4B196053680331E4
:101A30000AE0802018490001CB6F184A0343CB67A6
:101A40000121184B196053680B4353603100009813
:101A5000FFF7FEF929000198FFF7FAF90849029803
:101A6000FFF7F6F90C9B013303D006490C98FFF7FA
:101A7000EFF907B0F0BDC046FCF20000B8F100007D
:101A8000F4F1000038F300003CF2000082F20000A4
:101A900000000440008005400480044000800440B1
:101AA0009C80044094800440F8B50E00022114008C
:101AB00002681D00536807008B435360331F0C2BD3
:101AC00006D9032C04D9652210491148FFF7ACF858
:101AD0008023E0010340013E1E43A3073400396820
:101AE000DB0F0A689B01120C12041C4314430D22E5
:101AF0000C604B6893436A1E95410222AD001D4362
:101B00004D604B6813434B60F8BDC0463CF200008B
:101B100096F20000F7B5022405000E000268536833
:101B2000A34353601A4B1B6801932100019804F0F2
:101B300003FA05F003FA071C300005F0FFF9011C59
:101B4000381C04F075FDFC21890504F0FBFB05F051
:101B5000EBFE03F093FC05F0B1FEFF280FDC2B68D1
:101B60000C4A1C61196801380A4002211A601A687F
:101B70000002104318605A680A435A6007E0802345
:101B800002345B009C42D0D10348FFF785F8F7BDD3
:101B900018010010FF0000FFD4F2000002220368C9
:101BA000D8681042FCD004229960D9681142FCD058
:101BB00098687047104B70B51A68002A1AD1012531
:101BC00080210E4A1D60D36FC9000B43D3670C4BB5
:101BD0000C4C186802230C49636004F0ADF901381D
:101BE000E0600A4965601320FFF75EFA8022084B27
:101BF00012031A6070BDC046C40200100480044085
:101C0000180100100080014040420F0075100000D4
:101C100000E100E0044B10B51B68002B01D1FFF779
:101C2000C9FF024B986810BDC4020010008001403B
:101C30000121034B98615A690A435A617047C046B3
:101C4000008001400121024A53698B435361704770
:101C5000008001400122014B1A6070470080014062
:101C6000704770477047FFFF10B50548FFF780FBCE
:101C7000044904F0A7FE04F04DFB034B187010BD9F
:101C8000C902001000007F43C802001010B5FFF722
:101C9000EBFF10BD10B502490248FFF70FFB10BD66
:101CA0005C2E0000C902001010B502F0EBFC10BD64
:101CB00070B50023FF2402250B480C4AC15C0029A3
:101CC00006D0D15C0131C9B2FF2906D1D55407E055
:101CD000D65C002E04D0FF2E01D1D15400E0D454A4
:101CE0000133072BEAD170BD752D0010CB02001017
:101CF000034B185C013843425841C0B27047C0469C
:101D0000CB020010002210B51D4B19781A701D4A25
:101D10005078002801D001201870D078002803D016
:101D200002241878204318701078002803D0042467
:101D30001878204318709078002803D00824187869
:101D4000204318701079002803D0102418782043FD
:101D500018705079002803D0202418782043187078
:101D60009279002A03D040201A7802431A701B7817
:101D7000054A180008409943044B1070197010BDB3
:101D8000CA020010752D0010D3020010D2020010FC
:101D9000014B18797047C046752D0010014B5878DB
:101DA0007047C046752D0010014BD8787047C0466B
:101DB000752D00100023094A1380094A1370094A3F
:101DC0001370094A13700122084B52421A80084AC4
:101DD000084B1A600922084B1A707047DA0200108B
:101DE000D9020010E0020010D4020010D602001048
:101DF00040FD0000DC020010D802001010B50248BF
:101E0000FFF7D8FF10BDC046D502001037B572B637
:101E100000210422244B802559601961234BED00D9
:101E20001A608E22224B92009C582C4380259C5095
:101E30009C586D002C439C5001225A67140059672E
:101E400019004B6F1A4D01222340FAD114002B6761
:101E50006A676B674B6F164A2340FBD18E2453642D
:101E6000516CA400936013675360155911492940C0
:101E70008025019101992943C825019101992D02DD
:101E800029431151A02284211206890153500A4985
:101E900053500A4953500A4B9860001C01688D4604
:101EA0004068804737BDC046004000A010E000E019
:101EB00000800440FF2500000421000008210000EC
:101EC00000ED00E07047FFFFF0B5C1B00E0000F07C
:101ED00063FE00F06DFE8023DB029B1B0400984232
:101EE00000D91C0000F04EFE8027134802F086F94E
:101EF00000257F00A5421CD280216846490000F0E1
:101F000025FEFF2804D8631BBB4201D90B4806E01D
:101F1000A819694603F026F9002804D0084802F001
:101F20006DF9012006E001350648FF3502F05AF947
:101F3000E0E7002041B0F0BDAAFE0000B6FE0000C0
:101F4000D1FE0000B6010100F7B501260024514B77
:101F5000514D1E70514B1C80FC23DB002B8000F088
:101F600049FE2100200000F075FE300001F0F4FF72
:101F7000009401940EF0ABFD0421494800F0C0FD2F
:101F8000A0420FD100F008FE0820404200F0E6FD1C
:101F90000421684600F0DAFD042101A800F0D6FD16
:101FA00000F0F0FD01273F4E7F423F4C2368B342D3
:101FB00000D03E4C2368B34200D03D4C2368B3426E
:101FC00000D03C4C2368B34217D020233A485B42F0
:101FD0002B8002F013F9009B002B03D0374B019AA2
:101FE0009A4240D8364802F009F9364802F006F91C
:101FF000FC23DB002B80344820E0344B34482B801A
:1020000002F0F0F80A2160682F8002F06AF9636834
:10201000009A934227D3A068FFF7F8FE17E0FFF776
:10202000C3FE002834D1FFF7B9FE0028F7D001998C
:102030000098FFF749FF002826D0264802F0DEF876
:1020400005E0FFF75FFEFFF7A3FE002804D1FFF7CE
:102050009FFE0028F5D01BE0FFF79AFE002817D05E
:10206000FFF750FEF8E71C4B1C482B8002F0BAF833
:1020700000980A212F8002F034F9FC231848DB0075
:102080002B8002F0BBF8CEE7164802F0B7F88CE7D9
:10209000F7BDC046230100101E010010020600100B
:1020A00097FF00001EAB07B0F4FF030004FF03001E
:1020B00004FE030004F003009FFF0000FF7F030005
:1020C000B3FF0000C4EE0000CAFF0000FF070000DD
:1020D000E5FF0000EFFF00001FF8FFFF1500010003
:1020E000290001000B000100F8B50024012001F0D7
:1020F00033FF484BFC271C8000F07CFD464D474BCE
:1021000047482B8001F0BCFB0123464E3021337041
:10211000454BFF001C70454B60201C702F8002F067
:1021200073F8434802F05EF83821602002F06CF842
:10213000404802F057F84021602002F065F83E4820
:1021400002F050F84821602002F05EF83B4802F0AF
:1021500049F86021282002F057F8394802F042F887
:10216000013C38482C8002F03DF837482F8002F0BF
:1021700039F8022335482C80337003F0A5F8031991
:102180000434042B00D8040003F0C8F885B2002CF6
:1021900038D0FFF7B7FD7821682002F035F80A2122
:1021A000200002F081F803F0B9F8FA239B00EB1845
:1021B000984203D903F0B2F8013C85B202F004FB67
:1021C000002808D002F000FB041E02D0FFF79AFDA1
:1021D000F8E7FFF7B9FE02F0EBFA002807D002F0AB
:1021E000E7FA002802D0FFF78DFDF8E7040002F0BF
:1021F000E5FA0028CBD002F0E1FA002802D0FFF780
:1022000081FDF8E70123337000F0F4FC002001F0B9
:10221000A3FEF8BD020600101E01001000F8FFFF2B
:10222000DCF9000023010010280100102201001039
:10223000830101008A010100910101009801010060
:102240004E0001005400010058000100A20F0000E0
:10225000F0B5984D1E002B888BB0040004910993B3
:102260005711002E06D00020322300901A000100E2
:1022700000F0E4FC6A461021525E8E4B029222B2BC
:102280000392032F02DCFC22D20022E0042F1DD196
:1022900020235B422B80002E00D102E101F054FE8E
:1022A0000500012001F058FE02F0D6F80499020062
:1022B0001439601EC9B20A23C0B201F0F9FF7E488A
:1022C00001F090FF280001F047FE05E0042F01DD3A
:1022D0007A4A1A80002EE1D1002F02DC784A754B31
:1022E0001A800123774A00930299039800F0BCFCFE
:1022F000012F02DC724A6F4B1A80A3B21D00012627
:10230000704C08352DB20393220033000299280047
:10231000009600F0A9FC6B461B8A22000493043B44
:102320001BB20593009633000599280000F09CFC31
:10233000022F02DC624A5F4B1A800125039E2B00AC
:10234000103636B2220002993000009500F08CFC65
:102350002B00220005993000009500F085FC049BBD
:102360000095083B1BB2069322002B000699300013
:1023700000F07AFC032F02DC514A4E4B1A800124F4
:10238000039D504E18352DB22300320002992800CB
:10239000009400F069FC23003200059928000094A5
:1023A00000F062FC2300320006992800009400F03F
:1023B0005BFC049B00940C3B1BB207933200230090
:1023C0000799280000F050FC042F02DC3C4A394BEE
:1023D0001A800124039D3B4E20352DB2230032008C
:1023E00002992800009400F03FFC23003200059978
:1023F0002800009400F038FC2300320006992800E1
:10240000009400F031FC230032000799280000946A
:1024100000F02AFC049B0094103B1BB2089332008E
:1024200023000899280000F01FFC052F02DC244B34
:10243000204A13800125039C224E283424B22B000D
:10244000320002992000009500F00EFC2B003200B3
:1024500005992000009500F007FC2B00320006993A
:102460002000009500F000FC2B00320007992000AE
:10247000009500F0F9FB2B00320008992000009530
:1024800000F0F2FB04992B001439320009B20095D8
:10249000200000F0E9FB6A46064B928C1A800BB0D4
:1024A000F0BD0123074A00930299039800F0DCFB7A
:1024B00023E7C0461E010010E700010000F8FFFFFF
:1024C0008A5200002E070100F0B5012087B001F00C
:1024D00043FD00228C4B1A7001F0BEFFFA20000170
:1024E00002F0F2FE894B0400188004F06FFD884969
:1024F00003F0FCFE002801D0FF2000E07F2001F067
:1025000097FF844D631120B22B7001F059FF002218
:10251000814B2F001A7002F001FF83B20493012354
:10252000FC251C000393ED007C4B1B78002B01D095
:10253000002C22D101F090FF0400FA20000102F0EB
:10254000C3FE0600200004F041FD051C300004F02D
:10255000F5FC011C281C03F0AFFE002804D1FA2072
:10256000E1B2000102F0B9FE20B201F029FF002122
:10257000080000F06FFB07B0F0BD02F0CFFEFA22BA
:10258000049B92009B18984203D902F0C7FE83B2C5
:102590000493012C03D0022C00D196E0C4E7039BE6
:1025A0005F4C002B32D0012600F024FB7642102134
:1025B0002020268000F04EFB5A4801F013FE99219E
:1025C000282000F047FB584801F00CFE57482580B2
:1025D00001F008FE5648268001F004FE5821002034
:1025E000258000F037FB534801F008FE524E3000C2
:1025F00001F004FE300001F001FE300001F0FEFDAC
:10260000300001F0FBFD4D4801F0F8FD992130202C
:1026100000F020FB3B78032B02D801235B4200E053
:10262000474B23800223474A00933021013BA420DB
:1026300000F01AFB3621182000F00CFB424801F094
:10264000D1FD1820422100F005FB3B783F48032BC9
:1026500000D83F4801F0C6FD02233E4A2580602194
:102660000093A420013B00F0FFFA6621182000F03F
:10267000F1FA394801F0B6FD7221182000F0EAFAAB
:1026800001F0EAFE7F2802DD2D4B238000E025804B
:102690003B78234C042B02D1243B238003E0072BFF
:1026A00001D1013B3B700A21387801F0FDFD2B4838
:1026B00001F098FD258001F0CFFE00230200772174
:1026C0007020FFF7C5FD02242EE7FFF71BFBFFF785
:1026D000EFFA02F06DF80590002801D0002423E7FE
:1026E0002000FFF705FB061E04D001F073FE059BDA
:1026F000039307E0FFF7FCFA002800D114E701F08C
:1027000081FE039601240FE728010010D82B00104A
:102710000000FE42DA2B0010EB020010E90200106C
:102720001E0100106300010090FF0000770001000F
:1027300079000100840001009F000100BA0001003F
:1027400000F8FFFFEA0601004BFF0000D500010082
:10275000DF0001000C070100EA000100E7000100B2
:10276000012210B5084B00201A7001F0F5FB074854
:1027700001F086F802F0C2FD02F0E6FD01F082FFF2
:1027800002F0D2FD10BDC046E902001074F3000053
:10279000014B18787047C046E9020010F7B50024D5
:1027A000FC2725005826FF00292D48D802F0B6FD49
:1027B000234B1A689042F7D91E301860012D0BD0B8
:1027C000002D02D0022D22D035E01E4B28001D80A6
:1027D00000F01EFA01252EE0FC21E2B2C900002023
:1027E00001F0C0FD184B194A18806E2351781078FB
:1027F000490840081C34181A711A00952B00A4B21D
:1028000000F032FAFE2C16D90024022513E00E4BFC
:102810000E4A1F806E23107851784008181A490814
:102820006D3B0093711A00F01FFA3F34084BA4B2BD
:102830009C4200D9FF25FFF7ABFA0028B4D0F7BDC2
:102840004C2F0010020600101E010010E0010100D4
:10285000FF03000010B57F2001F0EAFD7F22034B4B
:102860001A80034B80321A7010BDC046D82B00105E
:10287000E8020010F7B5FFF773FF21220127FF24BC
:102880002A4B1A702A4B1F602A4B1C70FFF7E2FF7D
:10289000FFF7E6F920000024FFF7E3F9FFF704FA59
:1028A000FFF706FAFFF7F2F900F0CFF9FFF776FF2E
:1028B000380001F051FB204E348000F09BF91F4D91
:1028C000280000F0DDFF380001F046FBFC221C4B25
:1028D000D2001A80348000F08DF9280000F0D0FF7B
:1028E000184E194D34702F70FFF7FEFBFFF7ECFD0B
:1028F00000F094FB5823220000932100163320009F
:1029000001F0D6FB114B1879002802D0FFF7D0F95F
:10291000F8E701F021FB01230D4A0E4813700E4A1F
:1029200033702B70137000F0ABFFF7BDEA0200109C
:10293000F0020010E802001002060010DCF90000AE
:102940001E0100102801001022010010CB0200100F
:102950002301001078F6000025010010F0B51F4B90
:1029600085B01A780393002A36D000240B2A02D8A7
:102970000C239C1AE4B20127194B002055251F7027
:1029800000F0A8FB0322174EA4B231780020CB1C24
:10299000691A61180092513200F035FF380000F0DA
:1029A00099FB032231780020CB1C691A6118009230
:1029B000513200F0C2FE04220B4B1A803378E41A25
:1029C0000A4B57341C800A4B186801F00BFC039B20
:1029D000039A1B78013B137005B0F0BD080300108B
:1029E000230100107A030010980500108C050010D8
:1029F000FC020010F0B587B005930CAB0391049274
:102A00001F78060002F08AFC244B25491B780A68CF
:102A10000400121A234D9A422DD92A68002A2AD07E
:102A20000026214AC3180B6013682E60013313601F
:102A3000FFF718F9FFF73CF9FFF716F91B4D1C4F8C
:102A40002B683968581C0123286002938C4222D9D4
:102A5000FA239B005843174B611AC91803F06CFA0C
:102A60006A46154B127A1860124B2E60E3183B60D1
:102A7000124B1A700FE0002302932B68002B0AD12F
:102A8000FFF76CFF059B0097049A0399300001F053
:102A90000FFB01232B60029807B0F0BDEA02001083
:102AA00004030010F0020010E4020010F402001011
:102AB00000030010B80B0000F8020010EC02001038
:102AC00010B501000400FA20800003F0BFFA064BA5
:102AD00014211870200003F02FFAC0B2002800D192
:102AE0000130024B187010BDEA020010DC2B001000
:102AF00010B5024800F0D6FE10BDC046ED02001031
:102B000070B50F4D06002B780C00102B0BD0300049
:102B10002C70FDF773FF041E0DD13100094803F03E
:102B200065F820000AE008480DF010FF03000120BE
:102B3000002BECD002E0082301202B7070BDC046B2
:102B40001C010010540300100C03001013B56B4659
:102B50009C1D2200FDF782FF208816BD10B5074B93
:102B6000002804DADA6941428A4200D25042DB6925
:102B7000C018FDF7D5FF024B187010BD0C030010F4
:102B80006303001010B50020FDF7CAFF014B187059
:102B900010BDC04663030010034B10B5186AFDF763
:102BA000BFFF024B187010BD0C0300106303001030
:102BB000014BD8697047C0460C03001001238122E5
:102BC00013B5074C5B4200935201064B06492000A7
:102BD000FEF7D4F9054A06492000FEF729FB13BD8C
:102BE0003C030010180C000024120000000100102B
:102BF0006D0F000010B5002001F0B6FE0023024A60
:102C00001380024A138010BD980500108C05001037
:102C100010B501F0A9FE10BD064B10B51B880F2B97
:102C200004D8054C5B001B5B934201D002F008F80E
:102C300010BDC0462E0100108403001013B504AC73
:102C40002488009402F02CF813BD10B501F0ECFEBE
:102C500010BDFFFF024B1880024B19807047C04621
:102C6000980500108C050010F0B58FB00B9114A9D9
:102C700009780A90089111780591517802320991EA
:102C80000092012B76D1059B0733DB100C936B462A
:102C90001B8D07930493002303936B460C21595E0D
:102CA000059B8B4200DCF0E00723CA171A4052183C
:102CB000D21053B20A93764B0B4004D50822013B45
:102CC00052421343013380221BB21A416B469B8D43
:102CD0000D9206930293002301936B4604229B5EA0
:102CE000099A93423EDA0C9A0A995343009A521871
:102CF000D35C0D9A1A422DD0089B664C012B09D14A
:102D0000069B019903985918079B2288181809B245
:102D100000B21DE06B461027DF5F6B4608269E5F02
:102D2000228831003800FFF777FF049B31005D1CDB
:102D30002DB222882800FFF76FFF029B22885E1CBD
:102D400036B231003800FFF767FF310028002288D3
:102D5000FFF762FF019B01330193029B02339BB299
:102D60000293BAE7039B01330393049B02339BB2A4
:102D7000049392E7042B00D087E00023099A934242
:102D800000DB82E09BB202936B469B8D002507938C
:102D9000029B079A5B00D3189BB21AB201331BB295
:102DA00004936B461B8D039206930193059BAB42E4
:102DB00067DD009B384A1B7812681B115B009E5A26
:102DC000089B022B19D1069B6C001C19A4B227B2D8
:102DD000013432000399380024B2FFF71DFF32009E
:102DE00003992000FFF718FF320004992000FFF735
:102DF00013FF32000499380007E0029B079A9918E4
:102E00006B4632000420185E09B2FFF705FF0F225F
:102E1000009B1B781340204A5B0012689E5A089B57
:102E2000022B1AD1069B6C001C19A4B2A71C3FB23E
:102E3000033432000399380024B2FFF7EDFE32006C
:102E400003992000FFF7E8FE320004992000FFF705
:102E5000E3FE32000499380007E0029B079A9918B4
:102E60003200019B09B2581C00B2FFF7D5FE009B4F
:102E7000023501330093019B2DB202339BB20193C3
:102E800094E7029B01331BB278E70FB0F0BDC04658
:102E9000070000801E01001088050010F0B5130027
:102EA000574A8DB014680F00627811000192F72222
:102EB00008390A40511E8A410199C91052180892D6
:102EC000089922784A43511C4B431A00A2181279E0
:102ED000053352B2099282B20B9206920022E31895
:102EE00005926A46127D099952B2914200DC7CE05B
:102EF00008991A78022903D00133079393B204E0AA
:102F0000991C5B7807911B02134300240293059BD5
:102F10000B9A5B00D3189BB21AB201331BB2039217
:102F20000493019BA34257DD0122029B134217D059
:102F3000344B1B78022B07D16500ED19ADB2324E30
:102F40002BB20A9332881AE06946304B18254D5F40
:102F50001A782D4B002A01D01A882BE01A8830E00D
:102F60002B4E2C4B32881B8893422FD0254B1B783D
:102F7000022B18D16500ED19ADB22BB20A931900DE
:102F800003980135FFF748FE2DB232880A9904985C
:102F9000FFF742FE328829000398FFF73DFE328892
:102FA0002900049810E06946184B18254D5F1B78DE
:102FB000002B06D0019B2900581EC019031B18B214
:102FC00002E02800E11909B2FFF726FE029B013456
:102FD0005B08029364B2A4E7059B01330593069B4B
:102FE00001339BB20693079B7BE700200A4B1856E0
:102FF000099BC018034B1B7858430DB0F0BDC04669
:1030000094050010230100101E010010000600109E
:10301000020600102E01001028010010F8B5224908
:10302000224F09783B88224CDAB2224E224D0129E8
:1030300003D1FE31002B2FD129E0022907D1032330
:103040001A401100930019430A01114324E0032997
:103050001DD102391940194A00D0FF21206802F021
:103060001EFB02233988154A194023689818002945
:1030700000D0FF2102F013FB042339882068194097
:103080000F4B0E4AC018002908D0FF2106E00F217F
:103090000B4011011943C9B2084A206802F0FFFA37
:1030A000002333802B80F8BD240100109005001010
:1030B0007C030010980500108C050010D02500003E
:1030C000A04B000010B5024801F034F910BDC04615
:1030D0007AFE0000014B18807047C04626010010A0
:1030E000014B18807047C0462E0100100A4B30B5C6
:1030F0001B8893420ED0094B84B21B78A34209D996
:10310000074C25788CB2A54204D95943054B1B685E
:103110001818425430BDC0462E0100102C0100107A
:10312000300100107C030010F0B513004B4A8DB045
:103130000B9010680891427811000492F722083928
:103140000A40511E8A410499C91052180A920A99DC
:1031500002784A43511C4B431A00821812790533F6
:1031600052B205920022C31803926A46127B059957
:1031700052B2914266DD0A991A78022903D00133CE
:10318000099393B204E0991C5B7809911B021343E5
:1031900000936B469B89002506936B469B8D079396
:1031A000069B079A5B00D3189BB21AB201331BB27D
:1031B00001920293049BAB423FDB294B1B78022B0D
:1031C00024D10122009B6C00134205D0089B254EA0
:1031D000E418A4B227B204E0089B234EE418A4B27A
:1031E00027B23278390001980134FFF77FFF24B20B
:1031F000327839000298FFF779FF32782100019880
:10320000FFF774FF3278210002980EE00122089B3C
:10321000E918009B134201D0124B00E0124B1A78C0
:103220000798069B09B2181800B2FFF75FFF009BD2
:1032300001355B0800936DB2BCE7039B0133039338
:10324000099B92E70020064B1A78084B1856059BFD
:10325000C018022A00D140000DB0F0BD9405001046
:103260002301001026010010900500102801001015
:1032700010B5094B82B21B7893420BD9074A1478D8
:103280008AB2944206D95943054B1B681818054B5E
:103290001B88435410BDC0462C01001030010010A3
:1032A0007C0300102601001070B50F4B15001B7831
:1032B0008AB20600934202D8AAB2934212D90B4BAB
:1032C0001A78B3B29A420DD9A94202DD0B00290047
:1032D0001D000C00A54205DB21B23000FFF7C8FF3E
:1032E0000134F7E770BDC046300100102C0100101A
:1032F00070B50F4B16001B7882B20D00934202D8B6
:103300008AB2934212D90B4B1A78B3B29A420DD9B2
:10331000A84202DD030028001D000400A54205DBD1
:1033200020B23100FFF7A4FF0134F7E770BDC046BB
:103330002C0100103001001010B5002A04DA92B2FE
:103340005118524209B212B28A1812B2FFF7ACFFFA
:1033500010BD10B50B00002A04DA92B210185242C8
:1033600000B212B28218013A11B21A00FFF7C0FF80
:1033700010BDF8B5060014000F00CB181DB23419AB
:103380002A0024B2FFF790FF2A0039002000FFF73F
:103390008BFF3A0030002100FFF7AAFF2A0030001F
:1033A0002100FFF7A5FFF8BDF8B58218CB1805007E
:1033B0000C0012B21BB2002801DA002A2DDB1749DB
:1033C00009788D4201DB914227DD002C01DA002BC8
:1033D00023DB134909788C4201DB99421DDD9542BC
:1033E00002DC11002A000D009C4202DC19002300BF
:1033F0000C00161C002A00DA002636B2191C002B1D
:1034000000DA00210FB2AE4207DA300022003900A4
:103410000136FFF749FF36B2F5E7F8BD2C01001081
:1034200030010010F0B5030085B0002879D03E4A85
:103430001478A04201DB631E1BB23C4A10780428BA
:1034400007D13B4A11785943CA0F5118491089B224
:103450000AE0022865D10321354A12785A43D5176C
:1034600029408A18921091B2324A15880195324D3E
:103470002D8815802E4A002B28DD1278E31AD508F6
:10348000684300252E0002900393039B9D4216DAA9
:10349000891B89B233008C466146981B80B20700B5
:1034A0000298591889B2874205DA244F581C795C72
:1034B000F95483B2F0E70135ADB21E00E5E72049CB
:1034C00023B20020095E12B2002024E01278A4B2D8
:1034D0005043C010029000209DB20394039CAC4264
:1034E00016D9401A80B20C0084466046661AB6B2FD
:1034F0003700029E001980B2B74205DA0F4F661CF2
:10350000385C3855B4B2F0E70135ADB22100E5E7DB
:103510000021080012B2FFF747FF6A46054B928868
:103520001A8005B0F0BDC046300100102401001023
:103530002C01001026010010900500100706001055
:103540008C050010F0B587B004936B4601240092FF
:103550001B880290E21AA3405B4212B21BB2039195
:1035600001920593631E009A1BB29A4267DD019B8C
:10357000002B0CDB1300013B1BB20093059B0233B5
:103580009BB21AB20592019A9B181BB20193019A41
:10359000630001339B1804221BB20193049B134266
:1035A0000FD06B461F899D891E883819A91909B249
:1035B00000B22D19BE19FFF75BFE29B230B2FFF73A
:1035C00057FE0222049B13420FD06B461F899D8930
:1035D0001E88E019A91B09B200B2FFF749FEBE1907
:1035E000291B09B230B2FFF743FE049B1B070FD51E
:1035F0006B461D891F889E89E81BA11909B200B27C
:10360000FFF736FEBE19281B31B200B2FFF730FEBD
:10361000049BDB0702D40134A4B2A3E76B461D89E7
:103620001F889E89E81B311B09B200B2FFF720FEFC
:10363000F61B281B31B200B2FFF71AFEEBE707B00A
:10364000F0BDF0B58BB01600089393B2012207903D
:10365000D01A93405B421BB206938BB20493013B9A
:103660009BB2029310AB1B8800B2059302339BB24E
:1036700001930023009003930992039BB3425ADA0B
:10368000009B002B0ADB069B013E02339BB21AB261
:103690000692009A36B29B181BB20093039C009AC4
:1036A0000134A4B223B20393630001339B181BB20D
:1036B0000093099A089B134217D06B46B5B29F8BB3
:1036C000059B6A009A18049B3819591B12B209B25B
:1036D00000B2FFF731FE6B4604229A5E6B467D19FD
:1036E0000821595E28B2FFF727FE0222089B1342E9
:1036F00008D1029B013B9BB20293019B02339BB218
:103700000193BAE76B46B7B29D8B059B7A009A1876
:10371000049B281BD91B12B209B200B2FFF70CFEA2
:103720006B4604229A5E6B46ED1B0821595E28B257
:10373000FFF702FEDDE70BB0F0BDF0B587B01F006C
:103740000CAB00241C5F01900E00012C03DC3B003D
:10375000FFF70FFE55E06B469B88A1B202935B1802
:103760001BB2009393B203934B009BB20493049A51
:10377000039B31009D1A2DB22A000098BFB2FFF7BB
:10378000E8FDB6B27B1EF3189BB205936B462A0088
:103790001421595E0098FFF7DCFDA3B29E19049B2B
:1037A00036B2FF1A3FB231003A000198FFF7C4FD6C
:1037B000039B31005D1E029B3A005D19ADB228B239
:1037C000FFF7BAFD3100012322000098FFF7BAFE8F
:1037D000A3B2ED1A2DB23100022322002800FFF718
:1037E000B1FE059BA2B29E1A36B20423220031001C
:1037F0002800FFF7A7FE0823220031000098FFF7FA
:10380000A1FE07B0F0BDF0B587B00C000CA90026F2
:103810008E5F012E03DC2100FFF7C6FD2DE0B7B25D
:1038200081B292B27D0004920291AAB2C9190592A6
:1038300009B20391049A0599013B9DB2521A2BB229
:10384000210012B20398FFF7AFFD059B3C19ED1A5A
:10385000049B24B2581E029B2DB21818C01B00B244
:103860000123320021000095FFF7EBFE00950223B3
:10387000320021000398FFF7E4FE07B0F0BDFFFF20
:10388000054B064A18600378013313704378044AE5
:10389000013313707047C04694050010FD050010F9
:1038A0007A030010124A134B10B504001A60FFF798
:1038B00009FC0122104B11481A70114BDB321A809F
:1038C000104B2C3A1A80FFF7DBFF11220E4B082118
:1038D0001A8000230D4A200013800D4A11700D4AF2
:1038E00013600D4A136093611363936410BDC04667
:1038F000070600107C030010FC05001074F30000A4
:10390000820300109A0500102E010010900500108F
:1039100080030010840500109C050010F0B58FB0E6
:1039200000935B4204000D001700994200DAE0E2C8
:10393000D24B1A78914200DDDBE27B42984200DAFA
:10394000D7E2CF4B1B78984200DDD2E2CD4909780F
:10395000012936D80026FB1DDB10029331B2B94293
:1039600000DBC6E20723CA171A405218D31003938C
:10397000C54B0B4004D50822013B5242134301338F
:1039800080221BB21A410023049201936B46042249
:103990009B5E009A934212DA029A03995343149A57
:1039A0005218D35C049A1A4206D0019BA019E91858
:1039B00009B200B2FFF75CFC019B0133E5E7013679
:1039C000CCE7022900D0B8E0B04B00229A5E002A72
:1039D0006CDDAF4B061C00215B5E81B20191984209
:1039E00000DA1E1CA1B2761AAA49E4190020095E69
:1039F00036B2CB18A34200DD230001995B1A1BB23B
:103A00000393A54B00215B5EA9B20291291C9D4244
:103A100000DA191CA8B2091A09B2049100999B187E
:103A20006D18AB4200DD2B00029A9B1A1BB200936B
:103A3000BB100593039B9E4200DB5AE20322F3175F
:103A400013409B19954C9B100693344004D50423D6
:103A5000013C5B421C430134C02324B26400234177
:103A600006275BB2049D0793009B9D421BDA149BC3
:103A7000069A9A18059B6B43D35C079A13403A1B2E
:103A80001341874A9BB212889A4209D0854A138013
:103A9000029B5919019B09B2981900B2FFF7E8FB84
:103AA00001352DB2E0E7013636B2C3E7BB1004930F
:103AB000002301936B4604229A5EBA4200DB18E2AF
:103AC000764B134004D50421013B49420B4301339B
:103AD0001BB25B000393C0230399D6170B415BB263
:103AE000059303231E40B618149BB6109B1900269D
:103AF0000293009A33B29A421CDD029B059A1B780E
:103B0000039913400622521A1341654A9BB2128848
:103B10009A4208D0634AA9191380019B09B2E018A0
:103B200000B2FFF7A5FB049A029B9446634401365A
:103B30000293DEE7019B0133BBE7032974D107221F
:103B4000FB1DDB100893009B0D927B43D91711409E
:103B5000CB18DB101BB20693009B0099DB171340B8
:103B60005B18DB100993069B5B000A93002301930B
:103B70006B4604229B5EBB4200DBBAE10D99DA176B
:103B80000A40D318DB100293029A0A9B94466344BE
:103B90000B93ABB21E000C930C9B099AF31A1BB249
:103BA0009A423DDB089A02995343149A0698D21818
:103BB000515C0096039114990918CB1802995B5C2B
:103BC00004930B9BD35C0593330008339BB207939C
:103BD000049B04215A0002231A40059B9B000B40C2
:103BE0001A43012303990B401A434B080393049B88
:103BF0005B080493059B5B0805936B460021595EA7
:103C0000019B181900B2FFF771FA009B01339BB2B8
:103C10000093009A079B9342DAD10136B6B2BBE714
:103C2000019B01330193A3E7042900D0FCE0009934
:103C30006918002D08DA0AB200927A105543149AD6
:103C4000521B1492002506E08A4204DA00995218A9
:103C5000521B12B20092002C26DAA2B26442641007
:103C60005000D21917B222B20392149A02211219EB
:103C7000002408400290149204942BE030010010BC
:103C80002C01001080030010070000802A010010A2
:103C9000FE05001020010010040600100300008043
:103CA0002E01001026010010E21993420EDA0220C4
:103CB0006100014002910121D21A21405210521894
:103CC00012B203921A1B049117B203E0002204926D
:103CD000039202925B106B4362109B18864A0F2678
:103CE00012680695D3180122224001930892009B86
:103CF000069A9A18954200DBFBE0804A12789542BA
:103D000000DBF6E0089B002B05D0029B3A19D31A82
:103D10002100079374E02000029B3A19D31A0793FD
:103D2000079B98422ADA149B1A78029B002B05D035
:103D3000149B1201597809110A43D2B2019B1978D8
:103D40006F4B1B88059313119C46059B9C4503D024
:103D500013003140B3431943059B3240934202D0D4
:103D6000B1431143C9B2019B02301970149B00B2D8
:103D700001331493019B01330193D1E7029B002B84
:103D800041D001231F420CD0149B5D491A78098849
:103D900010003040884204D0019B120119780A4378
:103DA0001A70149B01331493019B013301932AE091
:103DB000149B1A78019B187813119C46504B1B8852
:103DC0000593059B9C4502D06346B0431843019B75
:103DD0001870013301931878494B1B880593130021
:103DE00033409C46059B9C4503D030401201104354
:103DF000C0B2019B02311870149B09B201331493B5
:103E0000079B9942D4DB039A149B94463D4A634432
:103E100012781493D21B049B5210D218019B0135C7
:103E20009B1801932DB262E7082962D100996918A5
:103E3000002D07DA7D430AB20092149A521B1492A5
:103E4000002506E08A4204DA00995218521B12B289
:103E50000092002C09DAA4B2E2191499644217B254
:103E600022B28918149100240AE0E219934209DA77
:103E700098B2A1B23A1A8A188A18411A12B20FB22D
:103E8000200001E0002002006B431B491B19096858
:103E9000CB18009949190191E119029101998D42BC
:103EA00027DA164909788D4223DA2100029EB142B1
:103EB00014DA149E3678B4461E780096104E368872
:103EC000664501D0664600966E46367801311E7012
:103ED000149E01330136149609B2E7E714990135AF
:103EE0008918149107492DB20978C91B09185B1864
:103EF000D4E70FB0F0BDC0467C03001030010010C5
:103F00002E0100102C01001037B51578941C537841
:103F10002A000094FFF702FD37BDFFFF10B5084BE4
:103F200009B21B6800B29B78D21A064BD2B21B783A
:103F3000002B02D0FEF7B2FF01E0FFF7F5F810BD4D
:103F400094050010FC050010024B1878431E9841A0
:103F5000C0B27047FC05001009490A4A0A4B002804
:103F600005D001200870DC211180B02205E0087026
:103F7000064909781180064A12781A807047C046AF
:103F8000FC050010820300109A0500102C0100109F
:103F90003001001010B50B4C0B490023E25E0B4BB7
:103FA00009881B685B785800091A0948007840B2F4
:103FB0008A4203DDC018FFF735FA02E0C3189B18E8
:103FC000238010BD8C0500109A0500109405001088
:103FD0002201001070B52B4B04001A68D378002B17
:103FE00003D0602801D9203CE4B20E2C21D8200057
:103FF00001F098FF461F1F1F1F1F1F1F0E1F081FC6
:104000001F1B46000022204B1A80FFF7C3FF37E03A
:104010001D4910780B882022181A1C4B80B208808A
:104020001978C0B2FFF77AFF2AE00022164B1A80F7
:1040300026E0154D12780023E85E154B1B889B1A6D
:1040400098420BDB00232B80124B1B78002B17D0E0
:10405000FFF7A0FF0D4B2878197802E00B4BC0B298
:1040600019782200FFF75AFF202C06D10A4B1B7843
:104070005BB2002B01D0401001302B88181828802B
:1040800070BDC04694050010980500108C05001006
:1040900082030010250100102801001010B5040053
:1040A0002078002803D00134FFF794FFF8E710BD13
:1040B000F0B58DB0002809D1364B374A374938481A
:1040C0001B7812780968006800F010FF354B1B78E8
:1040D000002B01D1FEF7A2FF334B1B78002B56D0EB
:1040E000324B334F1B78334D5A1E9341DBB207934B
:1040F000314B32491B8808A80193314B00241B889F
:10410000012602932F4B1B8803933B7804930023D3
:10411000EB5605932C4B1B6806932C4B1A6801F049
:1041200043FD0123244A5B421380254B28481C8011
:10413000244B3E701E802C70FFF7A2FBDC221B4B31
:1041400008A81E70234B1A80234B2C3A1A80234B4D
:104150001C80234B1C80FFF7A1FF0798FFF7FCFE94
:104160006A46154B928806981A806A46144B128943
:104170001A806A46134B92891A806B461B7C3B70EF
:104180006B461B7D2B70FFF77BFB074B1C700DB044
:10419000F0BDC0468E0500108F0500108805001088
:1041A0007C03001079030010EC020010FC050010E5
:1041B00000060010280100101E010010350101004A
:1041C0002E0100100206001094050010F8020010E5
:1041D00078F60000820300109A0500109805001080
:1041E0008C05001010B5FFF759FF10BD10B50D205C
:1041F000FFF7F0FE0A20FFF7EDFE10BD10B5FFF748
:104200004DFFFFF7F3FF10BD024B1880024B1980E2
:104210007047C046980500108C0500100023F0B5CB
:10422000050089B00E00984203D13020FFF7D2FE7E
:104230001CE05C1C28006B4431001F0001F002FFF1
:1042400028003970310001F077FE2300051EF0D1FF
:104250006B46013C1B5D18003730C0B2092B01D8FA
:104260003033D8B2FFF7B6FE002CF1D109B0F0BD63
:1042700010B5041E03DA2D20FFF7ACFE64420A21BC
:104280002000FFF7CBFF10BD10B5002903D1C0B24D
:10429000FFF7A0FE07E00A2902D1FFF7E9FF02E0DD
:1042A000C9B2FFF7BBFF10BD10B5FFF7EDFF10BDA2
:1042B00010B5044C20800448018019001000FFF75D
:1042C000E3FF10BD980500108C05001010B5002903
:1042D00003D1C0B2FFF77EFE02E0C9B2FFF79EFF36
:1042E00010BD10B5FFF7F2FFFFF780FF10BDFFFF15
:1042F00010B50248FDF7E6FD10BDC04606060010E9
:104300008021002310B5054A8900C45AD4520233D3
:104310008B42FAD1024B1A6010BDC04684030010D4
:104320008805001089104901D210C0100A43C0024C
:1043300010437047F8B5802704000025074E7F0022
:10434000A27861782078FFF7EDFF6B000135F0521D
:104350000334BD42F4D1024B1E60F8BD840300104B
:104360008805001070B51F24050025400C40641B13
:1043700023B253431B12EB183F2544114E112C401E
:10438000C00A3540C9122D1B091A55434A4312125F
:104390002D1280181BB26419021C002800DA0022BA
:1043A00012B2D202181C002B00DA00201043231C8A
:1043B000002C00DA00231BB25B01184380B270BDF1
:1043C000031C002800DA0023014A13807047C0460E
:1043D000D82B001010B5084B1A780132D2B2072A38
:1043E00000D907221A701B78044AD05C044B18804D
:1043F00000B2FFF7E5FF10BDDA2B00103407010013
:10440000D82B001010B5074B1A78002A01D0013ABA
:104410001A701B78044AD05C044B188000B2FFF776
:10442000CFFF10BDDA2B001034070100D82B00108D
:1044300010B5002803DBFF2802DDFF2000E000208C
:10444000034B1880034B0020185EFFF7B9FF10BD27
:1044500032010010D82B0010014B18887047C0465D
:10446000D82B001010B50248FDF72CFD10BDC0463A
:10447000DB2B00100122014B1A717047752D0010C3
:104480000022014B1A717047752D00100122014B5B
:104490005A717047752D00100022014B5A717047F8
:1044A000752D00100122014B9A717047752D001077
:1044B0000022014B9A717047752D00100122014BAB
:1044C0005A707047752D00100022014B5A707047CA
:1044D000752D00100122014BDA707047752D001008
:1044E0000022014BDA707047752D00100022014B3D
:1044F0009A707047752D00100022014B1A7070479A
:10450000752D001010B5054B9A79002A02D0FFF7DF
:1045100061FF01E001229A7010BDC046752D0010A8
:1045200010B5054B9A79002A02D0FFF76BFF01E026
:1045300001221A7010BDC046752D001010B5044838
:10454000FCF748FC0122034B1871034B5A6210BD63
:104550007C2D0010752D0010004000A010B50448FF
:10456000FCF738FC0222034B5871034B5A6210BD12
:10457000CC2D0010752D0010004000A010B504488F
:10458000FCF728FC0422034B9871034B5A6210BDC0
:10459000E02B0010752D0010004000A010B504485D
:1045A000FCF718FC0822034B5870034B5A6210BDED
:1045B000242D0010752D0010004000A010B50448F7
:1045C000FCF708FC1022034BD870034B5A6210BD55
:1045D000302C0010752D0010004000A070B50F4861
:1045E000FCF7F8FB0E4CA0710E48FCF7F3FBA37927
:1045F000C0B220700C4D002B0AD0002808D02B78B8
:10460000002B01D1FFF7FEFE00232370013300E0F1
:10461000002320222B70054B5A6270BDE02B001046
:10462000752D0010842C0010742D0010004000A087
:1046300070B50F48FCF7CEFB0E4CA0710E48FCF78E
:10464000C9FBA379C0B2A0700C4D002B0AD0002882
:1046500008D02B78002B01D1FFF7BCFE0023A370FC
:10466000013300E0002340222B70054B5A6270BDDD
:10467000E02B0010752D0010D42C0010742D0010AC
:10468000004000A010B52E4C2E492000FCF7B6FBD0
:1046900020002D49FCF7A3FB2C4C2D492000FCF7F2
:1046A000ADFB20002B49FCF79AFB2B4C2B4920003B
:1046B000FCF7A4FB20002A49FCF791FB294C2A496E
:1046C0002000FCF79BFB20002849FCF788FB284CC6
:1046D00028492000FCF792FB20002749FCF77FFBCC
:1046E000264C27492000FCF789FB20002549FCF7D0
:1046F00076FB254C25492000FCF780FB200024494F
:10470000FCF76DFB23490020FCF7CEFC2249012079
:10471000FCF7CAFC21490220FCF7C6FC2049032013
:10472000FCF7C2FC1F490420FCF7BEFC1E49052013
:10473000FCF7BAFC1D490620FCF7B6FC10BDC046CC
:104740007C2D00108144000075440000CC2D001029
:10475000994400008D440000E02B0010B14400009B
:10476000A5440000242D0010C9440000BD440000F1
:10477000302C0010E1440000D5440000842C0010CF
:10478000F944000021450000D42C0010ED44000045
:10479000054500003D4500005D4500007D450000E9
:1047A0009D450000BD450000DD450000314600008C
:1047B000014B18797047C046752D0010014B587990
:1047C0007047C046752D0010014B98797047C04660
:1047D000752D001070B52648FFF764F8254E264960
:1047E0003000FCF7D3FA254D254C2A00210030007B
:1047F000FCF71EFD234E24493000FCF7C7FA2A00BF
:1048000021003000FCF714FD204E21493000FCF758
:10481000BDFA2A0021003000FCF70AFD1D4E1E499A
:104820003000FCF7B3FA2A0021003000FCF700FD4D
:104830001A4E1B493000FCF7A9FA2A00210030006B
:10484000FCF7F6FC174E18493000FCF79FFA2A00D7
:1048500021003000FCF7ECFC144E15493000FCF749
:1048600095FA2A0030002100FCF7E2FC70BDC0463A
:10487000802C00107C2D001084120100000100101B
:10488000350D0000CC2D001070080100E02B001049
:1048900088140100242D0010941A0100302C0010FF
:1048A0006C060100842C0010C4320100D42C0010CE
:1048B0007C0E0100A023054A05491B0699500549B5
:1048C000C0005850002199507047C0468820000011
:1048D0000700F8FF8821000070B58A23A024042275
:1048E00024069B01E2508023064D5B046351FFF7D1
:1048F000E1FF8023044A5B01A350C046C0466351D8
:1049000070BDC046042200008422000070B58823D8
:10491000A024042224069B01E2508023054D5B0461
:104920006351FFF7C7FF8023034A5B01A350C046D2
:10493000635170BD042200008422000010B5074CB2
:1049400007492000FCF734FF20000521FCF70FFF8A
:1049500004492000FCF7E8FE10BDC0461C2E0010E4
:10496000FC0402009A99993E10B504002020FFF73C
:10497000B3FF0020FFF7CAFF2120FFF7ADFF0020A3
:10498000FFF7C4FF2220FFF7A7FF2000FFF792FFE9
:10499000A023882204211B06920199508021074AF6
:1049A00049049950802106484901064C99501951F3
:1049B000C046013899500028F9D110BD04220000EA
:1049C000409700008422000010B52020FFF784FFEC
:1049D0000020FFF79BFF2120FFF77EFF0020FFF75D
:1049E00095FF2220FFF778FF0020FFF763FFA02349
:1049F000882204211B06920199508021074A49040C
:104A00009950802106484901064C99501951C046D9
:104A1000013899500028F9D110BDC0460422000089
:104A2000409700008422000070B5A0250124784E34
:104A30002D06FFF783FFAC510A20FCF72EFB754BC8
:104A40000A20EC50FCF729FBAC510A20FCF725FBAF
:104A50002000FFF741FF8E204000FFF757FF0220A4
:104A6000FFF73AFF80204000FFF750FF0320FFF7D9
:104A700033FF6948FFF74AFF0820FFF72DFF67481B
:104A8000FFF744FF0C20FFF727FF0020FFF73EFF52
:104A90000F20FFF721FF2000FFF738FF2020FFF74E
:104AA0001BFF0020FFF732FF2120FFF715FF00203A
:104AB000FFF72CFF1020FFF70FFF0020FFF726FF66
:104AC0001120FFF709FF80204001FFF71FFF0A2098
:104AD000FCF7E3FA3020FFF7FFFE0020FFF716FF98
:104AE0003120FFF7F9FEDB20FFF710FF3220FFF740
:104AF000F3FE0020FFF70AFF3320FFF7EDFE002052
:104B0000FFF704FF3420FFF7E7FEDB20FFF7FEFE90
:104B10003520FFF7E1FE0020FFF7F8FE3620FFF713
:104B2000DBFEAF20FFF7F2FE3720FFF7D5FE0020B7
:104B3000FFF7ECFE3820FFF7CFFEDB20FFF7E6FEA5
:104B40003920FFF7C9FE0020FFF7E0FE0A20FCF73E
:104B5000A4FAFF20FFF7C0FE0320FFF7D7FE502086
:104B6000FFF7BAFE2E48FFF7D1FE5120FFF7B4FE43
:104B70002C48FFF7CBFE5220FFF7AEFE2A4D052052
:104B8000FFF7C4FE5320FFF7A7FE2800FFF7BEFE85
:104B90005420FFF7A1FE2548FFF7B8FE5520FFF788
:104BA0009BFE234C0320FFF7B1FE5620FFF794FE37
:104BB0002000FFF7ABFE5720FFF78EFE1D48FFF7E2
:104BC000A5FE5820FFF788FE2800FFF79FFE59201A
:104BD000FFF782FE2000FFF799FEB020FFF77CFE72
:104BE0001548FFF793FEFF20FFF776FE0020FFF742
:104BF0008DFE0720FFF770FE1048FFF787FEC820E4
:104C0000FCF74BFA2220FFF767FEFFF7DDFE70BDD1
:104C10000422000084220000301000000808000078
:104C200003020000090A0000211000000206000033
:104C30000307000007050000012500001710000011
:104C4000F8B584B21500DB2C25D88EB2AF2E22D851
:104C50002020FFF741FE3000FFF758FE2120FFF72C
:104C60003BFE2000FFF752FE2220FFF735FEA02476
:104C70008823042224069B01E25080278023064ECD
:104C80005B047F01A3512800A751FFF713FE034BDC
:104C9000E750C046A751F8BD04220000842200005E
:104CA000F0B587B00CAC24880494904202DD040077
:104CB00010002200994202DD0C0019002300DC28BC
:104CC0004CDCB0294ADC141CDC2A00DDDC2422B2D6
:104CD00003921A1CB02B00DDB02213B20293061C03
:104CE000002800DA002636B20C1C002900DA002465
:104CF000A02524B22D06039B9E422FDC2020FFF727
:104D0000EBFDA0B2FFF702FE2120FFF7E5FDB3B2F5
:104D100018000193FFF7FAFD2220FFF7DDFD88223E
:104D200004239201AB508027802226000C4B5204B2
:104D30007F01EA50EF500593029B9E420ADA0498E5
:104D4000FFF7B8FD074BEF50C046059B0136EF500B
:104D500036B2F1E7019E013636B2CCE707B0F0BDBE
:104D60000422000084220000F0B55F465646C0B41D
:104D70000400EFB003200D001600FFF7ADFD56480C
:104D8000FFF7C4FD2020FFF7A7FD0020FFF7BEFDC1
:104D90002120FFF7A1FD0120FFF7B8FD2220FFF73A
:104DA0009BFDA023882204211B069201995080219B
:104DB0004A4A490499508021490199504849494A31
:104DC0006F469950002348481A0019009C46BA467D
:104DD0000122120393466E2122783244D3B25B0043
:104DE000EA5AD20002605B46C36704C7FC228350C4
:104DF000C3670134835022783244D3B25B00EA5A4D
:104E0000D20002605B46C36704C7FC228350C367BD
:104E1000013483500239DFD157466E215A4608CFFC
:104E20000360C267FC23C250C2670139C25008CF79
:104E30000360C267FC23C250C2670139C25008CF69
:104E40000360C267FC23C250C2670139C25008CF59
:104E50000360C267FC23C250C2670139C25008CF49
:104E60000360C267FC23C250C2670139C25008CF39
:104E70000360C267FC23C250C2670139C25008CF29
:104E80000360C267FC23C250C2670139C25008CF19
:104E90000360C267FC23C250C2670139C25008CF09
:104EA0000360C267FC23C250C2670139C25008CFF9
:104EB0000360C267FC23C250C2670139C250AED141
:104EC00057460122582394449C4584D16FB00CBCB2
:104ED00092469B46F0BDC0463810000004220000F8
:104EE0000700F8FF88200000882100A0F0B5F3B08B
:104EF00000900191002B02D1FFF736FF21E1012B39
:104F000000D0B5E00320FFF7E7FC8F48FFF7FEFC79
:104F10002020FFF7E1FC0020FFF7F8FC2120FFF73D
:104F2000DBFC0020FFF7F2FC2220FFF7D5FCA023DA
:104F3000882204211B069201995080228349520441
:104F40005A5080228248834D52015A50009C1D5075
:104F5000814D0390651902950025009E3078013639
:104F600004116400A4466746019C3C5BE400A4462F
:104F70006746AC4604AC2F51A4440F242040019C4A
:104F80004000005B6446C0006060DC2008354000E3
:104F90008542E3D10098714E3730009005AD73AF74
:104FA000281F006830605A50C0466D481A505A5049
:104FB000C0461A502C6834605A50C0461A505A5095
:104FC000C0461A506C6834605A50C0461A505A5045
:104FD000C0461A50AC6834605A50C0461A505A50F5
:104FE000C0461A50EC6834605A50C0461A505A50A5
:104FF000C0461A502C6934605A50C0461A505A5054
:10500000C0461A506C6934605A50C0461A505A5003
:10501000C0461A50AC6934605A50C0461A505A50B3
:10502000C0461A50EC6934605A50C0461A505A5063
:10503000C0461A502C6A34605A50C0461A505A5012
:10504000C0461A506C6A34605A50C0461A505A50C2
:10505000C0462C351A50AF42A2D10298009CA04203
:1050600000D079E7A023002203991B065A5068E07C
:10507000022B66D10320FFF72FFC3348FFF746FCD5
:105080002020FFF729FC0020FFF740FC2120FFF73C
:1050900023FC0020FFF73AFC2220FFF71DFCA02391
:1050A000882204211B06920199508022274952042C
:1050B0005A5080222648274D52015A50009C1D50BC
:1050C00025482018029037208446032700988444FE
:1050D0000098019C0078214E80094000005BC000D0
:1050E00030605A50C0461E4D00985A510078019CBD
:1050F000001138404000005BC00030605A50C0468C
:1051000000985A510078019C801038404000005BA4
:10511000C00030605A50C04600985A510078019C37
:1051200038404000005BC00030605A50C0460098D4
:105130005A51013000906045CAD10298009CA042AB
:10514000C1D173B0F0BDC046381000000422000089
:10515000882000000700F8FFD0250000882100A06B
:1051600084220000F0B585B00600029172B64C4B67
:10517000984202D8050B020511E04A4B1C259842C3
:105180000CD8494B013D984208D8484B013D984204
:1051900004D8474D8542AD416D42183572045342E3
:1051A0005341DBB201933223424C434F236065608D
:1051B000424BA560390020009847404A3B68039263
:1051C000002B01D0012068E0E422920296425FD0D9
:1051D000019A002A21D001933423FA212360384B0D
:1051E000890018686560A56000F0A6FE324FE06097
:1051F000324B3900200098473B68002BE2D1323314
:10520000236065602D4BA5603900200098473B68FE
:10521000002BD7D1019B002B18D133232360029B95
:10522000FA21A36080235B00E360254B89001868A6
:10523000666000F081FE204D2061290020001F4B98
:10524000984728680028BDD162B626E03B2323603A
:10525000E023FA219B0063601A4B8900A360184B7E
:10526000186800F069FE144FE060144B390020000C
:1052700098473B68002BA5D13233236065600F4B04
:10528000A5603900200098473B68002BC5D099E7FE
:10529000019B002BDAD001239DE705B0F0BDC0468D
:1052A000FF7F0100FF7F0300FFFF0200FF7F02007E
:1052B000FFFF0100242F0010382F0010F11FFF1FE7
:1052C00018010010FF03000013B56B46DC1D01221E
:1052D00021000BF0D9FC207816BD07B56B46D971BB
:1052E0000733012219000BF0A9FC07BD024A13681D
:1052F0000A3313607047C046482F0010044B054A1C
:1053000007215A6000229A601960034B1A607047A7
:1053100010E000E0FF520700482F0010014B186812
:105320007047C046482F001010B50020FBF706FE5E
:105330000400FCF799FC034B1878001900F0F4FB0B
:1053400010BDC046C8020010A023802104201B0607
:1053500089015A5810B5024380205A50294A400109
:1053600099580143802099509958400401430120E5
:105370009950995801439950234924485A58024357
:105380005A5023480021FCF7A1F900212148FCF7DD
:105390009DF900212048FCF799F900211F48FCF7EE
:1053A00095F900211E48FCF791F900211D48FCF7F2
:1053B0008DF900211C48FCF789F900211B48FCF7F6
:1053C00085F900211A48FCF781F900211948FCF7FA
:1053D0007DF900211848FCF779F900211748FCF7FE
:1053E00075F900211648FCF771F900211548FCF702
:1053F0006DF900211448FCF769F900211348FCF706
:1054000065F910BD0420000008200000F8FF070027
:105410000007020004090200080B02000C0D020044
:10542000100F020014110200181302001C150200D4
:105430002017020024190200281B02002C1D020064
:10544000301F020034210200382302003C250200F4
:1054500010B5064B0648197800F0F8FD054B1860AA
:1054600039235843044B188010BDC0463801001042
:10547000983A0000542F0010502F0010454AF8B5FC
:10548000564692464B005B0D9A444D465F46444655
:105490005246F0B4894605000C000E000700132A9E
:1054A00022DC002A47DB52463B4B134198460B0057
:1054B00042461340034311D0384A394B01F0C4FD32
:1054C0000022002300F0D8FE002805D0002C41DB8C
:1054D0004E46434600279E43380031003CBC904670
:1054E0009946A246AB46F8BD5246332A08DD8023D2
:1054F000DB009A45F2D102000B0001F0A5FDEDE7BB
:10550000284A9446012263445242DA4093460242BA
:10551000E4D0224A224B01F097FD0022002300F044
:10552000ABFE0028D8D0002C1ADB5B464E469F43CA
:1055300038003100D2E7194A194B01F085FD0022ED
:10554000002300F099FE0028C6D0002C16DB0027AF
:105550000026C1E7802352465B0313419944B7E715
:105560005346142B12D03423524601279B1A9F40D6
:105570007F19AF429B415B429944D6E764006408BF
:1055800025430027002DA7D0074EA5E7133B9C46D7
:10559000E144CAE701FCFFFFFFFF0F009C75008894
:1055A0003CE4377EEDFBFFFF0000F0BF084B10B579
:1055B0000400002B02D0002100E000BF054B18685A
:1055C000836A002B00D098472000FBF79FFCC04661
:1055D000000000009C0701000E4B70B500251E0066
:1055E0000D4CE41AA410A54204D0AB00F358984720
:1055F0000135F8E70BF04EF9084B00251E00084C6A
:10560000E41AA410A54204D0AB00F3589847013522
:10561000F8E770BDA0080100A0080100A008010083
:10562000C808010010B5034B0100186800F08CF8A1
:1056300010BDC0469C01001010B5034B0100186856
:1056400000F036F810BDC0469C010010C9B28218A7
:10565000904204D003788B4202D00130F8E700205A
:105660007047002310B59A4203D0CC5CC454013378
:10567000F9E710BD10B5884202D98B18984201D3C2
:10568000002305E09B1A013A08D3995C8154FAE79C
:10569000934203D0CC5CC4540133F9E710BD03003E
:1056A0008218934202D019700133FAE77047FFFF66
:1056B00070B50500002944D00C1F2368002B00DAC8
:1056C000E418280000F09AFA1E4A13681100002B13
:1056D00002D16360146031E0A3420DD92268A018A2
:1056E000834203D118685B688218226063600C6093
:1056F00024E0A24203D813005A68002AF9D11E6898
:105700009819A0420BD1216871185818196082426B
:1057100014D110685268411819605A600EE0A04216
:1057200002D90C232B6009E021686018824203D162
:10573000106852684118216062605C60280000F0C7
:105740005EFA70BD5C2F0010032370B5CD1C9D4325
:10575000083506000C2D01D20C2501E0002D01DBDF
:10576000A94202D90C23336048E0300000F046FA29
:10577000234B1C681A002100002913D00B685B1B07
:105780000DD40B2B02D90B60CC181EE08C4202D139
:10579000636813601AE04B6863600C0016E00C004D
:1057A0004968E9E7174C2368002B03D1300000F06B
:1057B000E9F920602900300000F0E4F9431C18D01A
:1057C0000323C41C9C43A0420DD12560300000F08F
:1057D00016FA200007220B30231D9043C31A0ED067
:1057E0005A42E2500BE0211A300000F0CBF9431C82
:1057F000EBD10C233000336000F001FA002070BDC3
:105800005C2F0010582F0010F7B5170001938A681D
:105810000B6900900C00934200DA130022003B60F9
:1058200043321278002A01D001333B6023689B0683
:1058300002D53B6802333B60062523681D401ED01D
:10584000230043331B785A1E9341226892061CD5CD
:105850003020E1184331087021005A1C4531097885
:10586000A2184332023311700FE0220001231932D3
:1058700001990098089EB047431C0ED00135E3689B
:105880003A689B1A9D42F0DBDAE722000199433225
:105890000098089DA847431C02D10120404220E007
:1058A00006232068E1683A6803400025042B03D1F1
:1058B0008D1AEB43DB171D40A3682269934201DD7B
:1058C0009B1AED180027BD420AD0220001231A328C
:1058D00001990098089EB047431CDED00137F2E7DB
:1058E0000020FEBDF0B58BB006920A00433207934C
:1058F000059004920A7E0C00109B6E2A00D1ABE04A
:1059000011D8632A22D009D8002A00D1B5E0582A3C
:1059100000D0C5E045310A70814A4FE0642A1DD0AD
:10592000692A1BD0BCE0732A00D1AAE009D86F2AEB
:1059300029D0702A00D0B3E0202209680A432260EF
:1059400037E0752A1FD0782A33D0A9E00E001A68F4
:105950004236111D196013683370A4E021681A687B
:10596000080606D4490604D5111D19600023D55E2A
:1059700002E0111D19601568002D3BDA2D23049AF1
:105980006D42137036E021681A68080606D449068D
:1059900004D51568111D1960ADB202E0111D196022
:1059A00015685F4B227E039308276F2A1DD00A27B4
:1059B0001BE022007821453211705A4A196803927F
:1059C000081D226818600D68100602D4500600D524
:1059D000ADB2D30702D520231A4322601027002D31
:1059E00003D1202322689A432260230000224333FC
:1059F0001A7002E00A274A4B03936368A360002BE6
:105A000009DB0422216891432160002D05D1049E09
:105A1000002B11D07BE0002D79D0049E28003900A6
:105A200000F010FB039B013E5B5C280033703900E3
:105A300000F082FA051EF1D1082F09D12368DB0797
:105A400006D563682269934202DC3023013E33703D
:105A5000049B9B1B23612BE009681A68080607D486
:105A6000490605D5111D19601368A28A1A8004E041
:105A7000111D1960136862691A600023049E236176
:105A800016E01A68111D196016680021626830005E
:105A9000FFF7DCFD002801D0801B6060636803E035
:105AA000260042363270012323610023049A1370CA
:105AB000079B09AA00932100069B0598FFF7A4FE07
:105AC000431C02D10120404227E02369320006999D
:105AD0000598079DA847431CF4D0236800259B0721
