:1000000000800010FD000000EB150000ED15000061
:1000100000000000000000000000000000000000E0
:10002000000000000000000000000000EF150000CC
:100030000000000000000000F11500001D5F00003E
:10004000E9150000E9150000E9150000E9150000B8
:10005000E9150000E9150000E9150000E9150000A8
:10006000E9150000E9150000E9150000E915000098
:10007000E9150000E9150000E9150000E915000088
:10008000E9150000E9150000195C0000E915000001
:10009000E9150000E9150000E9150000E915000068
:1000A000E9150000E9150000E9150000E915000058
:1000B000E9150000E9150000E91500000000000046
:1000C000B8F4000000010010A0000000B8F4000027
:1000D0000000002000000000B8F4000000400020F4
:1000E00000000000A00100101837000000000020F0
:1000F00000000000004000200000000010B5104C7F
:10010000104B9C4206D2A2686168206801F071FA27
:100110000C34F5E70C4B9C4205D26168206801F075
:1001200071FA0834F6E701F0C9F9084B002B02D048
:1001300000E000BF03E006F0A7F900F0F1F9FEE7E8
:10014000C0000000E4000000FC000000000000000F
:1001500010B5064C2378002B07D1054B002B02D09D
:10016000044800E000BF0123237010BDA00100106F
:1001700000000000B8F40000084B10B5002B03D0BD
:100180000749084800E000BF07480368002B00D17A
:1001900010BD064B002BFBD09847F9E7000000008C
:1001A000A4010010B8F40000A0010010000000003D
:1001B000036810B50400013304D12C220549064818
:1001C00000F05AFF636960681B681840431E98413D
:1001D00010BDC04654C000009EC0000070B50400B1
:1001E0000D001822002106F0B2F92900200000F0CD
:1001F0007AFF200070BDFFFF012310B54A080E4CA6
:100200001A4022540D4C8A081A4022540C4CCA0839
:100210001A4022540B4C0A091A4022540A4C4A092B
:100220001A4022548A09094C1A402254C909084A22
:100230000B40135410BDC046FE010010FB0100101E
:10024000F8010010BC010010B0020010AD02001057
:10025000B302001070B50B4C0B4D2378C1B2207067
:1002600000202B70FFF7C8FF2378297802209943DC
:10027000FFF7C2FF2B78217801209943FFF7BCFFDD
:1002800070BDC046AC020010D801001010B519486E
:10029000FFF78EFF0400601E844117486400FFF7DB
:1002A00087FF002801D004231C431448FFF780FF78
:1002B000002801D008231C431148FFF779FF0028CC
:1002C00001D010231C430F48FFF772FF002801D014
:1002D00020231C430C48FFF76BFF002801D040236C
:1002E0001C430A48FFF764FF002801D080231C4309
:1002F000200010BDC00100105002001004020010C8
:10030000380200101C0200106C020010E001001006
:10031000F0B5C31D87B00492742B34D8CB1D5E2B6F
:1003200031D80225002903DAC9004D4200210235E7
:10033000164C6E2324784B430194154C1B182478DB
:1003400002940C0008340394040008340594019CC2
:100350008C4213DD04000F4A1E1A2F1AB618002C07
:1003600006DB029AA24203DD049AD219125D3255CD
:10037000059A0134A242F2D108350833039A0131BB
:1003800066339142E3D107B0F0BDC04630010010A2
:100390002C01001037060010F0B5434C85B04349DE
:1003A000206807F07BFB07F0FFFC4149050060680F
:1003B00007F074FB07F0F8FC0600002D05DBD223E4
:1003C000DB009D4202DD1D0000E00025002E03DB66
:1003D000202E02DD202600E00026364803F0A4F897
:1003E000734200930023029300276B420193029B08
:1003F000314A9B00D3180393029BFB18002B1BD0A0
:10040000019B073318DB2D4B019A1B789A4213DAB4
:10041000009B073310DB2A4B009A1B789A420BDAB9
:10042000039ABB00D2584223013A5A43254B009904
:100430009A180198FFF76CFF019B0137083301936D
:10044000E02FD9D1009B08330093029BE033029345
:100450001A00D2231B019A42C6D1002003F064F88F
:10046000E31DDF7F236A3F01FF1842235F43164BE2
:100470003000DF1907F0BAFC011C606807F00EFBC2
:1004800007F092FC06B2280007F0B0FC011C2068BF
:1004900007F004FB07F088FC3A0000B2310003F0DB
:1004A00057FF05B0F0BDC0468402001000005C425A
:1004B00000003042FFFF0000D48B00002C01001030
:1004C00030010010B6C000000ECC000010B502F0E4
:1004D000EBFBFF2002F018FD044804F035F901227F
:1004E000034B1A700022034B1A6010BDD489000020
:1004F000A9030010DC0100100723CA171A40511885
:10050000C21713401818C310E020C9104843C01880
:10051000024B8000C0580138C0B27047D48B000035
:10052000F0B587B0FFF7D2FF8422CA4BD2051A601C
:1005300085220025D2055A609D601D7305F006FDD9
:100540000400039502F03EFB002800D17FE105F096
:10055000FDFC039B05901C1B03190393039B272B96
:1005600001D8059CEEE7BC4C283B20780393FFF7AD
:100570008DFE2070FFF76EFEB84AB64C13686569B1
:10058000013313600023621DD377A21DD377616806
:10059000281C06F02FFE6060061C281C08F01CF9C1
:1005A000AF4AB04B07F0A8FC08F06AF9AE4D071C43
:1005B000291C06F0F3FD002801D1676100E06561A8
:1005C000FE2125688905281C06F014FE07F0ECFBC7
:1005D00082210490C905301C06F00CFE07F0E4FBF4
:1005E000070001000498FFF787FF172800D9FBE0F8
:1005F0009E49281C06F0FEFD07F0D6FB3900FFF7E8
:100600007BFF172800D9EFE0FE2167688905381CB9
:1006100007F044FA07F0C8FB060001000498FFF752
:100620006BFF17280AD89149281C06F0E3FD07F054
:10063000BBFB3100FFF760FF172807D90026606970
:10064000311C06F0A1FD002800D0D8E0884B5B7873
:10065000002B1AD082216068C90506F0CBFD07F097
:10066000A3FB060001000498FFF746FF172800D9F6
:10067000D0E07E49281C06F0BDFD07F095FB310057
:10068000FFF73AFF172800D9C4E07A4B1B78049390
:10069000002B1BD06F4C206907F0A8FB8121061CA2
:1006A000C905606806F0A6FD07F07EFB07006F49EC
:1006B000281C06F09FFD311C06F09CFD07F074FB22
:1006C0003900FFF719FF172800D8A9E06A4B614CE1
:1006D0001E78002E18D0206907F088FB011C2068C6
:1006E00007F0DCF98121051CC905606806F082FD70
:1006F00007F05AFB0700281C07F056FB3900FFF7EC
:10070000FBFE172800D897E0E3692269934204D1E1
:10071000236A013323620023E361236A0B2B01DD8B
:100720000023236265690021281C06F037FD00289C
:1007300002D00122A31DDA770021281C06F01AFD41
:10074000002802D00122631DDA774C4B1B78002B66
:100750000AD14B4B1B78002B06D1002E04D1049BF1
:10076000002B01D103332362631DDB7F0493002B35
:1007700001D00C232362A31DDD7F002D01D00D23AA
:10078000236282216068C90506F034FD07F00CFB86
:10079000FE21060027688905381C06F02BFD07F0AE
:1007A00003FB3100FFF7A8FE16280AD92F49381C91
:1007B00006F020FD07F0F8FA3100FFF79DFE16283D
:1007C00004D8002D02D1049B002B3DD058230022D9
:1007D000009311001633100002F034FB002800D102
:1007E000BCE6FFF7D9FDB9E60023301C636107F0D2
:1007F000DBFA0723984307F0F9FA606004E76661C3
:10080000381C07F0D1FA07230430984307F0EEFABA
:1008100060601BE78022A36912069B18636134E7BE
:10082000311C281C06F0E6FCE36920600133E3611B
:1008300000230734E37749E70122E36925600133A8
:10084000E361E31DDA775FE703232362BEE707B0C6
:10085000F0BDC0468402001034020010DC0100101C
:1008600048E17A14AE47D13F0000C0400000E040AC
:10087000F8010010AD020010B0020010B302001029
:10088000BC01001010B5184801F00EFD0122174BF5
:1008900017481A6100225A61164A591D9A610022AE
:1008A000CA77991DDA611A62CA7707331249DA7773
:1008B000FFF794FC11491248FFF790FC11491248C8
:1008C000FFF78CFC11491248FFF788FC11491248C8
:1008D000FFF784FC11491248FFF780FC11491248C8
:1008E000FFF77CFC10BDC0466802001084020010B7
:1008F000040200109A9989408412010070080100D6
:100900005002001088140100C0010010941A010068
:10091000E00100106C06010038020010C432010032
:100920001C0200107C0E01006C02001010B50100CA
:10093000014800F065FD10BD6C03001010B5FF21EB
:10094000024800F05DFDC0B210BDC0466C0300104F
:10095000F8B543B204000D00002B07DA0021772020
:10096000FFF7F6FF012831D87F231C40A0268823FB
:1009700080279B013606F750FFF7E0FF8A239B0193
:10098000F750FFF7DBFF2000FFF7D0FF280EFFF73F
:10099000CDFF280CC0B2FFF7C9FF280AC0B2FFF78D
:1009A000C5FFE8B2FFF7C2FF9520402C03D0943872
:1009B000482C00D18630FFF7B9FF0A24FFF7BEFFAD
:1009C000030603D5013CE4B2002CF7D1F8BDFFFFCC
:1009D00073B58823A02480223F4D9B012406E2505A
:1009E00028003E4900F002FD28000022082100F006
:1009F000F1FC842364259B01E358013DEDB2FFF730
:100A00009DFF002DF9D129004020FFF7A1FF040030
:100A100001284BD1D52148204900FFF799FF012833
:100A200015D1FFF78BFF01AC28550135042DF8D106
:100A3000A378012B3AD1E378AA2B37D1284D802116
:100A4000E920C905FFF784FF011E11D115E0290037
:100A5000E920FFF77DFF4126012801D80224E9267D
:100A6000204D00213000FFF773FF002820D116E051
:100A7000013DADB2002D19D0E1E77A20FFF768FF04
:100A8000002813D10500FFF759FF60550135042DEB
:100A9000F9D123780C245B060FD42C000DE08021C3
:100AA00050208900FFF754FF002806D0002404E0FE
:100AB000013DADB2002DF9D0D3E70B4BA0221C7045
:100AC000882380219B011206D150FFF737FF604237
:100AD0006041C0B276BDC0466C030010002D3101EC
:100AE000E02E0000A8610000B6020010F8B51D005D
:100AF000244B07001B7816001B0700D44902512025
:100B0000FFF726FF002801D0012431E01E4CFFF73B
:100B100015FFFF2804D1013CA4B2002CF7D1F3E764
:100B2000FE28F1D1194C641BA41BA4B2002E07D1DE
:100B3000002F11D0013DADB201353E007D1904E01A
:100B4000013EFFF7FBFEB6B2F0E7FFF7F7FE3070AD
:100B50000136B542F9D105E0013DADB2FFF7EEFE39
:100B6000002DF9D1013CA4B2FFF7E8FE002CF9D129
:100B70008823A02280219B011206D150FFF7DEFEC0
:100B80002000F8BDB602001030750000020200001F
:100B9000064B1A68831ED168002002398B4203D2AB
:100BA00050784343906918187047C046B802001047
:100BB0000F4B10B51A6800230380836804001800E7
:100BC000012B13D0D16801208B420FD2002B03D10F
:100BD0001178032900D15369E360002B03D018007A
:100BE000FFF7D6FF00E050692061002010BDC0462D
:100BF000B8020010F0B5040085B0012854D92C4B80
:100C00001D68EB6898424FD22E78022E32D0032E08
:100C100038D0012E48D181B24B08C91889B24B0A8D
:100C20000193244BCA05D20D296903AF9A4204D01F
:100C3000019B3800591802230EE0019B3800591817
:100C40003300FFF753FF021E2ED12969019B0131AA
:100C5000C918330002A80530FFF748FF002823D148
:100C60007B7838781B0203431811E2071DD418055E
:100C7000000D1AE02B69C2B2010AC918520003AD77
:100C8000330007E07F22042329690240C40992004F
:100C9000611803AD2800FFF729FF002804D1687808
:100CA0002B780002184300E0012005B0F0BDC046DB
:100CB000B8020010FF01000070B50488050001347F
:100CC000A4B2002C01D1032322E00369002BFAD047
:100CD00022071BD101330F4A0361C0681668002840
:100CE00003D1B388A342EED910E073782209013B07
:100CF0001A420BD1FFF77EFF0123984208D9F3680F
:100D00009842E0D2E860FFF743FF286100232C807F
:100D1000180070BDB8020010F7B504000D002B7864
:100D2000202B01D10135FAE72F3B5A4253410027CE
:100D3000ED18A7602B78202B01D901972EE0200019
:100D4000FFF736FF404B06001B689B681F7078E07A
:100D5000009B1B78002B68D00822009BDB7A134095
:100D60005BD162680099581CC95CD35C994254D12C
:100D700003000B28F6D1D37A002B62D13B68986828
:100D8000C37ADB0656D5437D017D1B020B43C27E31
:100D90001904837E120213430B43A36060680200B0
:100DA00003000B32934203D100220821130013E009
:100DB000202119700133F5E72F2B12D02E2B3BD0B9
:100DC00091420ED91F00613F192F01D8203BDBB2A1
:100DD000571C8354FAB233005E1CEB5CF6B2202B36
:100DE000EAD8AD192026019A9E425241C2722000D3
:100DF000FFF7DEFE061E16D1134F3B689B6800937B
:100E00000F23228821691A40520111330098FFF7FD
:100E10006DFE00289CD0012613E02000FFF74CFF58
:100E20000028EDD00600032E0BD163680326DB7A81
:100E3000002B06D1042604E00829D2D10A00033190
:100E4000C9E73000FEBDC046B802001070B5164BB1
:100E500001001C6890B00620002C23D00023A37052
:100E60006B4608ADA56003A80493FFF755FF002863
:100E700018D12B780330002B14D01023EE7A1E40AB
:100E800010D16B7D297D1B02EA7E0B431904AB7EDA
:100E9000120213430B4363620F9B30002362012352
:100EA000E661A37010B070BDB80200102F4BF7B50B
:100EB0001C68002307000D000192138006209C424D
:100EC00053D0A3780138DB074FD5236AE2699B1A18
:100ED0008B4200D29DB20097002D45D0E669F30504
:100EE0001BD1700A617806F005F800290BD1002E9D
:100EF00001D1606A02E0A06AFFF77CFE01282FD9C9
:100F00000023A062E370A06AFFF742FE002827D00A
:100F1000E3785A1C1818E270E062E3692E1CDA05C7
:100F20008023D20D9B009B1A9BB29D4200D91E1CB0
:100F3000B6B2381E00D000983300E16AFFF7D6FD44
:100F400000280DD1E369AD1B9B19E361009BADB295
:100F50009B190093019B1B88F618019B1E80BBE721
:100F600000230120A37000E02800FEBDB80200109D
:100F7000294BF7B51C680623002C4AD0A278013B08
:100F8000D20746D5256A854200D905000022E369CB
:100F9000E261954238D066787602002B12D031009B
:100FA000681E5F1E05F020FF31000190380005F03B
:100FB0001BFF019B834205D373423B40E361ED1A63
:100FC000A06A01E0606AA062B5420CD9FFF712FE88
:100FD00001281BD9E368984218D2E369A0629B19E3
:100FE000E361AD1BF0E7E3695B19E361FFF7D0FD57
:100FF00000280BD06B0ADAB2ED0501D1E27003E0F4
:101000000132C318E270E362002302E00023A37000
:1010100001331800FEBDC046B802001030B5154BB4
:1010200004001B688DB00620002B20D004AD9D600D
:1010300001AB63602000FFF76FFE002815D12B780D
:10104000002B0FD0EB7ADB0601D404200FE06B7D80
:10105000297D1B020B43EA7E1904AB7E1202134367
:101060000B43A3602000FFF7A3FD0328EDD00DB0D4
:1010700030BDC046B802001010B513000A000100D0
:10108000014800F003F810BD4ED400000FB404B0C6
:101090007047FFFF036870B504000D00013304D1F1
:1010A000242206490648FFF7E7FF6368002D01D0B8
:1010B000E26800E02269136070BDC04654C00000C1
:1010C0009EC0000070B50D000400160000F098FBF3
:1010D0006B1C07D00021200000F0BAFB310020007B
:1010E00000F0B0FB70BD10B50122FFF7EBFF10BDA3
:1010F00070B50D000400160000F082FB6B1C0BD0D5
:1011000031002000FFF7C6FF0121200000F0A0FB06
:101110000021200000F096FB70BD10B50022FFF703
:10112000E7FF10BD10B50400034B083303601C300B
:1011300000F068FC200010BD80D4000010B5040051
:10114000FFF7F0FF200000F067FA200010BDFFFF5E
:10115000036810B50400013304D12C220549064868
:10116000FFF78AFF636960681B681840431E984157
:1011700010BDC04654C000009EC0000070B5050000
:1011800004000E4B0E00083308C528001822002169
:1011900005F0DDF9002320003100E3612362636381
:1011A000A363E364064A23001C3000F0C9FB280057
:1011B0003100FFF798FF200070BDC04680D40000CA
:1011C0002912000010B50430FFF7C2FF10BD030064
:1011D0000A0010B51C300121002A04D01A62002236
:1011E0005A630132110000F021FC10BD030010B55C
:1011F0000A001C30002903D000229963DA6401320E
:10120000022100F013FC10BD436910B50100002B52
:1012100004D10368002B06D0984704E0006800283A
:1012200001D00431984710BD10B5012903D002291F
:1012300004D1383000E02030FFF7E6FF10BDFFFF9B
:1012400010B50400431C12D00B685A1C0CD09C42F1
:1012500008D12000896800F00FFC0021200000F078
:1012600027FC04E00C31EFE70148FFF70FFF10BD4A
:1012700090D4000010B5030088420AD00B00421C35
:1012800007D003004A1C04D00348FFF7FFFE0123E8
:101290005B42180010BDC046A1D400000B685A1C68
:1012A00005D0834201D1486802E00C31F6E718000E
:1012B0007047FFFF10B50400431C07D0FFF7EEFF97
:1012C0000400431C02D10248FFF7E0FE200010BDDD
:1012D000B2D40000074A13681818EFF30881884257
:1012E00005D30C220120044B40421A6001E010603B
:1012F0001800704704010010B4380010064B10B5F8
:101300001B680400002B00D09847044B1B68002B7F
:1013100001D02000984710BD0801001014010010F2
:10132000094B10B51B680400002B04D09847002817
:1013300001D1FFF7E3FF054B1B68181E00D098474B
:10134000002C00D0206010BD0C0100101001001016
:10135000704710B5040000F05FF9200010BDFFFFDA
:1013600073B504000E480025083020600820E060B6
:101370000C48261D60610698656025722561009005
:10138000300000F003FD2B0030002269E16800F01E
:101390007DFD3000616900F0AFFD200076BDC046E4
:1013A000F0D4000040420F0070B5094D04002B68D6
:1013B00083420BD0061D0269C1680023300000F093
:1013C00065FD6169300000F097FD2C6070BDC0467E
:1013D000BC0200100261002210B5034BC1601A600C
:1013E000FFF7E2FF10BDC046BC020010002210B59E
:1013F000024B41611A60FFF7D7FF10BDBC0200101D
:1014000070B50D000400FFF7CFFF2900201D00F08C
:10141000B7FD70BD036870B5DB680400984763686A
:101420005A682368002A02D19B68984713E05B68DA
:101430001568984763682D1A5A68002D07DC916873
:1014400059601B68002BEAD050689847E7E723688B
:1014500010681B69984770BD10B50248FFF7DAFFA6
:1014600010BDC04618D5000070B5040000F0C4FDE2
:10147000050000F0C1FD401BA042FAD370BDFA2365
:1014800010B59B005843FFF7EFFF10BD70B50A4C35
:10149000A568A3682A00002B0AD180225E59520554
:1014A0009A1804331660C02BF7D180225205A2602F
:1014B00010308000815070BD00ED00E07FB58020CD
:1014C0003F494002CA6F8E240243CA67232200208C
:1014D00020253C4B3C499A60223A0A603B49A400D3
:1014E0000A60186219593A4A114001910199A943B9
:1014F000C825019101992D022943195100903548C1
:101500000099814204D8C046009901310091F7E763
:101510000121002019645964586459645C6C29489D
:101520000C42FBD08E218026C825890044582D020C
:1015300014400394039C34430394039C2C43445071
:1015400023248460445822400292029CB4430294B3
:10155000029A2A4342500120DC681A4901220442BF
:10156000FAD00320086700204A67486710004A67DE
:101570005C6F144A01210442FAD08E2091678000EA
:101580001558154C2C4014501558144C2C40145020
:1015900000209164D164D064D164DA6C0A42FCD03A
:1015A0002321084A1161012259691142FCD000220D
:1015B0000B4B1A601A600B4B01321A607FBDC0469C
:1015C0000480044000800440F0400440F4400440A3
:1015D000FF250000C3090000FFFBFFFFFFFEFFFF28
:1015E000C0800440C880044070477047704770470F
:1015F0007047002310B5934203D21C585C5004334B
:10160000F9E710BD00231A008B4202D21A500433AE
:10161000FAE770470020704710B504F065FF10BD71
:1016200013B501210F4B9A68120B12039A600278CE
:101630009C6891402143996099680B4801439960E7
:1016400018690849019001980028F9DA08329200D7
:10165000535801938B685B005B088B600198000412
:10166000000D16BD00C001400000088470B50600E2
:10167000FFF7D6FF04003000FFF7D2FF050030006F
:10168000FFF7CEFFAC4202D923002C001D0003005F
:10169000A84200D92B0020009C4200D2180070BD47
:1016A00073B50C00214D060029002000FFF702FE53
:1016B000C0B23070FF2804D135221D491D48FFF704
:1016C000DBFC20002900FFF7BBFD80221A4BE4055C
:1016D000E40DE418236819499343B9322360FF32BB
:1016E0008858174B034010200193019B8343C82067
:1016F0000193019B000203438B508021114A890111
:10170000D36F0B43D367104B1049186805F06CFB7F
:101710008023DB051A000138C0B20D491843086068
:101720000B681340FCD10A4A136073BD84D50000D6
:1017300020D500006BD5000000400440008004402C
:10174000FF250000048004401801001020A10700BC
:1017500000C0014010B5FFF789FF06F08FFB02497A
:1017600006F088F810BDC0460108803910B50400A5
:10177000431C04D11E2217491748FFF77DFC174B65
:101780001A68002A06D101321A60154A1549D36F2A
:101790000B43D3670122002C12D0134B9C420FD075
:1017A000124B9C420CD0124B9C4209D0114B9C42D4
:1017B00006D0114B9C4203D0104BE1184A424A41DB
:1017C0002000110000F058F90120A404E40EA0400C
:1017D00010BDC04620D60000A3C00000C802001003
:1017E0000480044040000100281400002C16000072
:1017F00030180000341A0000381C0000C4E1FFFF5C
:1018000070B505000C0029604B1C11D00800FFF7D3
:10181000ADFF2414074BA400E318EB60064B68608F
:10182000E3182B61054BE3186B61054BE418AC60C2
:1018300070BDC046002200A0802200A0002100A0B0
:10184000002000A010B5006800F032F910BDFFFFC5
:10185000036870B504000D00013304D14322094927
:101860000948FFF709FC002D06D0012D09D1A26817
:10187000636811680B4303E0A268616813688B43D7
:10188000136070BD20D600009EC00000F7B5012196
:101890000D008540134C636A2B4221D0124B860009
:1018A000F058019300281BD023682B4218D163689D
:1018B0002B4206D0E3692B4203D00C4B1B689847A0
:1018C000E5612369074F2B4209D03B6A2B4206D0C2
:1018D000064B019A1B680221905998473D62656248
:1018E000F7BDC046004000A0D0020010CC0200109E
:1018F00010B50020FFF7CAFF10BD10B50120FFF79B
:10190000C5FF10BD10B50220FFF7C0FF10BD10B518
:101910000320FFF7BBFF10BD10B50420FFF7B6FF93
:1019200010BD10B50520FFF7B1FF10BD10B50620A2
:10193000FFF7ACFF10BD10B50720FFF7A7FF10BDE4
:10194000F7B505002748814202DD0120404248E00A
:101950002548264C02600020820016590096002E71
:101960003BD11351224C2860E36F224F224E3B4360
:10197000E3671F248B0349120C401821A44604007E
:101980009B0F59435E346144A400A151812101247D
:10199000890071589B000F00210081400F433900DE
:1019A0008127BF00F151A021802609065B18B601EE
:1019B00099592700019161468F40019940B2B9437E
:1019C00099510E4BD158FFF761FD1F222B680098EB
:1019D00013409C400A4B1C6003E001300828BBD137
:1019E000B3E7FEBD13110200CC020010D0020010BC
:1019F00004800440800009000080044068D6000094
:101A000000E100E000210368064A9B0010B59950F0
:101A1000012281210068044C82408900635893436D
:101A2000635010BDD0020010008004400368012004
:101A3000984070B50F4C2368034200D16062C543E3
:101A400026680C4B2E402660012909D1002A03D0BC
:101A50005A68104358600CE05A6815405D6008E011
:101A6000002A03D01A691043186102E01A69154070
:101A70001D6170BD004000A070B504000D00431C46
:101A800004D1152207490848FFF7F6FA074BE40589
:101A9000E40DE418072322681D409A43154325608E
:101AA00070BDC04688D60000A3C0000000400440BE
:101AB00070B504000D00431C05D11D220F491048CC
:101AC000FFF7DAFA06E081231B01984214D00D4B90
:101AD000984211D00C4BE405E40DE4182368042D62
:101AE00004D18022D2001343236005E01822ED00C8
:101AF000934315401D43256070BDC04688D6000045
:101B0000A3C00000140A00000040044070B50C1C83
:101B100005000021201C05F02DFB002809D1FE2125
:101B2000201C890505F03AFB002803D0FE24A405FB
:101B300000E0002480232D689B00E85806F09EF901
:101B4000211C05F097FE05F03DFB81239B00E8502A
:101B500070BD8023F7B5812704689B00E258BF0061
:101B6000E059E15001920D0006F088F9061C019839
:101B700006F084F9011C301C05F0B2FC061C28009C
:101B800006F034F9011C301C05F074FE05F01AFB58
:101B9000E051F7BDF7B50F00060050493800FFF7D8
:101BA00089FBC3B20500FF2B02D14D48FFF76EFA47
:101BB0004C4B01211A78019310000840031E04D0F9
:101BC0000A410B000A4200D081E001242100994023
:101BD000019A4548127873600A4301990A70434A92
:101BE00099008A5809333260C26F110080221206B0
:101BF0001143C1672000984003003D4A38005268F5
:101C0000364913433A4A5360FFF71AFB3768394A9B
:101C10003B68394913430C223B607B6813437B606C
:101C20007A68364B13407B607B680193344B1868AD
:101C300005F0DAF8FE2301381B0140011840019B32
:101C400018437860E8B207281DD805F0C3F8040AE5
:101C50001016040A1016A023DB00FC500222294BA8
:101C600010E0A123DB00FC500222274B0AE0A22354
:101C7000DB00FC500222254B04E0A3230222DB0000
:101C8000FC50234BFA508022C12352019B00FA5092
:101C90000123C0225B4292001E49BB500C32B95056
:101CA000043ABB5080231C499B00F950FB58053A6D
:101CB0009B08FF3ABB5004227B68300093437B6053
:101CC000FFF747FF30000021FFF720FFF7BD134863
:101CD000FFF7DCF901235B4277E7C046D0D600006E
:101CE0003CD70000F00200100480044068D70000D8
:101CF000008004400100060040420F001FF0FFFF7B
:101D000018010010040500000C0500001405000077
:101D10001C05000001100000204E000056D70000F6
:101D200080210A4AC905D36F80200B430121D36764
:101D3000074B1A680A431A6000229A601A68024325
:101D40001A601A688A431A607047C04604800440CB
:101D500000400240024B18680006C00F7047C046A2
:101D600000400240014B98687047C0460040024066
:101D700010B58024044B1968A143196098601A6853
:101D800022431A6010BDC04600400240F0B5334EF9
:101D900087B0009104003100009801920293FFF790
:101DA00089FA2F4D070029000198FFF783FA2D4982
:101DB00003900298FFF77EFA2B4904900C98FFF7E6
:101DC00079FA039905903800FFF754FA059907004E
:101DD0000498FFF74FFA01003800FFF74BFA206034
:101DE000431C04D1482221492148FFF745F92368C3
:101DF000204A93420FD0204A934219D180201F4994
:101E0000C002CB6F1E4A0343CB6701211D4B1960F3
:101E1000536803310AE0802018490001CB6F184A4B
:101E20000343CB670121184B196053680B43536080
:101E300031000098FFF704FA29000198FFF700FA33
:101E400008490298FFF7FCF90C9B013303D00649BF
:101E50000C98FFF7F5F907B0F0BDC046B4D8000004
:101E600070D70000ACD70000F0D80000F4D7000015
:101E70003AD800000000044000800540048004407F
:101E8000008004409C80044094800440F8B50E001B
:101E90000221140002681D00536807008B43536041
:101EA000331F0C2B06D9032C04D965221049114885
:101EB000FFF7E2F88023E0010340013E1E43A30741
:101EC00034003968DB0F0A689B01120C12041C43B2
:101ED00014430D220C604B6893436A1E9541022205
:101EE000AD001D434D604B6813434B60F8BDC046C9
:101EF000F4D700004ED80000F7B5022405000E000C
:101F000002685368A34353601A4B1B680193210076
:101F1000019804F069FF05F069FF071C300005F027
:101F200065FF011C381C05F0DBFAFC21890505F072
:101F300061F906F051FC04F00FFA06F017FCFF28D7
:101F40000FDC2B680C4A1C61196801380A40022119
:101F50001A601A680002104318605A680A435A60EF
:101F600007E0802302345B009C42D0D10348FFF796
:101F70008DF8F7BD18010010FF0000FF8CD800009D
:101F800002220368D8681042FCD004229960D96804
:101F90001142FCD098687047104B70B51A68002A3F
:101FA0001AD1012580210E4A1D60D36FC9000B4351
:101FB000D3670C4B0C4C186802230C49636004F087
:101FC00013FF0138E0600A4965601320FFF75EFAED
:101FD0008022084B12031A6070BDC046F402001044
:101FE00004800440180100100080014040420F00AE
:101FF0005914000000E100E0044B10B51B68002BF1
:1020000001D1FFF7C9FF024B986810BDF402001020
:10201000008001400121034B98615A690A435A61CB
:102020007047C046008001400121024A53698B433A
:1020300053617047008001400122014B1A607047D4
:1020400000800140704770477047FFFF10B505489A
:10205000FFF780FB044905F00DFC05F0B3F8034BD6
:10206000187010BDF902001000007F43F802001044
:1020700010B5FFF7EBFF10BD10B502490248FFF79E
:102080000FFB10BD5C2E0000F902001010B503F02C
:1020900005F810BD70B50023FF2402250B480C4A3B
:1020A000C15C002906D0D15C0131C9B2FF2906D13B
:1020B000D55407E0D65C002E04D0FF2E01D1D154B8
:1020C00000E0D4540133072BEAD170BDE12D00109C
:1020D000FB020010034B185C013843425841C0B268
:1020E0007047C046FB020010002210B51D4B197846
:1020F0001A701D4A5078002801D001201870D0783D
:10210000002803D002241878204318701078002883
:1021100003D004241878204318709078002803D046
:1021200008241878204318701079002803D0102450
:102130001878204318705079002803D0202418788C
:10214000204318709279002A03D040201A78024365
:102150001A701B78054A180008409943044B107008
:10216000197010BDFA020010E12D001003030010D9
:1021700002030010014B18797047C046E12D001092
:10218000014B58787047C046E12D0010014BD878BC
:102190007047C046E12D00100023094A1380094A08
:1021A0001370094A1370094A13700122084B5242F6
:1021B0001A80084A084B1A600922084B1A707047A7
:1021C0000A0300100903001010030010040300109C
:1021D00006030010F8E200000C03001008030010D2
:1021E00010B50248FFF7D8FF10BDC0460503001028
:1021F00037B572B600210422244B8025596019613D
:10220000234BED001A608E22224B92009C582C43E7
:1022100080259C509C586D002C439C5001225A678D
:102220001400596719004B6F1A4D01222340FAD14F
:1022300014002B676A676B674B6F164A2340FBD10C
:102240008E245364516CA400936013675360155936
:10225000114929408025019101992943C8250191FF
:1022600001992D0229431151A022842112068901CE
:1022700053500A4953500A4953500A4B9860001C66
:1022800001688D464068804737BDC046004000A0C9
:1022900010E000E000800440FF2500000421000061
:1022A0000821000000ED00E07047FFFFF0B5C1B06D
:1022B0000E0000F095FE00F09FFE8023DB029B1BCA
:1022C0000400984200D91C0000F080FE80271348CB
:1022D00002F0B8F900257F00A5421CD28021684693
:1022E000490000F057FEFF2804D8631BBB4201D908
:1022F0000B4806E0A819694603F04CFD002804D0FD
:10230000084802F09FF9012006E001350648FF3534
:1023100002F08CF9E0E7002041B0F0BD62E400007B
:102320006EE4000089E400006EE70000F7B50126C6
:102330000024514B514D1E70514B1C80FC23DB007F
:102340002B8000F07BFE2100200000F0A7FE300073
:1023500002F026F8009401940CF0CFFE04214948C5
:1023600000F0F2FDA0420FD100F03AFE08204042FA
:1023700000F018FE0421684600F00CFE042101A8BC
:1023800000F008FE00F022FE01273F4E7F423F4C46
:102390002368B34200D03E4C2368B34200D03D4C8A
:1023A0002368B34200D03C4C2368B34217D02023AB
:1023B0003A485B422B8002F045F9009B002B03D08A
:1023C000374B019A9A4240D8364802F03BF93648DA
:1023D00002F038F9FC23DB002B80344820E0344B3A
:1023E00034482B8002F022F90A2160682F8002F025
:1023F0009CF96368009A934227D3A068FFF7F8FE20
:1024000017E0FFF7C3FE002834D1FFF7B9FE00281C
:10241000F7D001990098FFF749FF002826D02648F9
:1024200002F010F905E0FFF75FFEFFF7A3FE0028BA
:1024300004D1FFF79FFE0028F5D01BE0FFF79AFEBE
:10244000002817D0FFF750FEF8E71C4B1C482B80E4
:1024500002F0ECF800980A212F8002F066F9FC23C4
:102460001848DB002B8002F0EDF8CEE7164802F0AA
:10247000E9F88CE7F7BDC046230100101E010010EB
:10248000320600104FE500001EAB07B0F4FF03005A
:1024900004FF030004FE030004F0030057E50000FE
:1024A000FF7F03006BE500007ED4000082E50000A2
:1024B000FF0700009DE50000A7E500001FF8FFFFF3
:1024C000CDE50000E1E50000C3E50000F8B5002619
:1024D000012001F065FF4A4BFC271E8000F0AEFD95
:1024E000484D494B49482B8001F0EEFB0123484CF5
:1024F00030212370474BFF001E70474B60201E7039
:102500002F8002F0A5F8454802F090F838216020AD
:1025100002F09EF8424802F089F84021602002F063
:1025200097F8404802F082F84821602002F090F8C5
:102530003D4802F07BF86021282002F089F83B48F2
:1025400002F074F8013E3A482E8002F06FF83948E4
:102550002F8002F06BF80223374823702E8003F09F
:10256000CBFC8319DBB225000324042B00D8040024
:1025700003F0ECFC86B2FFF7B7FD7821682002F08B
:1025800067F80A21200002F0B3F803F0DFFCFA2319
:102590009B00F318984203D903F0D8FC013C86B2A3
:1025A00002F01EFE002808D002F01AFE041E02D01F
:1025B000FFF79AFDF8E7FFF7B9FE02F005FE0028E5
:1025C00007D002F001FE002802D0FFF78DFDF8E7EA
:1025D000040002F0FFFD002802D1002CCBD106E060
:1025E00002F0F8FD002802D0FFF77EFDF8E7012396
:1025F0002B7000F023FD002001F0D2FEF8BDC04694
:10260000320600101E01001000F8FFFF94DF0000EA
:102610002301001028010010220100103BE70000F8
:1026200042E7000049E7000050E7000006E600002E
:102630000CE6000010E60000A20F0000F0B5984D77
:102640001E002B888BB00400049109935711002EB3
:1026500006D00020322300901A00010000F012FD85
:102660006A461021525E8E4B029222B20392032FD1
:1026700002DCFC22D20022E0042F1DD120235B4289
:102680002B80002E00D102E101F082FE0500012026
:1026900001F086FE02F096FB049902001439601ED8
:1026A000C9B20A23C0B202F027F87E4801F0BEFF8B
:1026B000280001F075FE05E0042F01DD7A4A1A803A
:1026C000002EE1D1002F02DC784A754B1A800123DD
:1026D000774A00930299039800F0EAFC012F02DC8C
:1026E000724A6F4B1A80A3B21D000126704C083548
:1026F0002DB203932200330002992800009600F0C7
:10270000D7FC6B461B8A22000493043B1BB2059343
:10271000009633000599280000F0CAFC022F02DC65
:10272000624A5F4B1A800125039E2B00103636B299
:10273000220002993000009500F0BAFC2B00220024
:1027400005993000009500F0B3FC049B0095083B10
:102750001BB2069322002B000699300000F0A8FC63
:10276000032F02DC514A4E4B1A800124039D504E28
:1027700018352DB22300320002992800009400F091
:1027800097FC2300320005992800009400F090FC8B
:102790002300320006992800009400F089FC049B75
:1027A00000940C3B1BB207933200230007992800CA
:1027B00000F07EFC042F02DC3C4A394B1A800124D5
:1027C000039D3B4E20352DB2230032000299280094
:1027D000009400F06DFC230032000599280000945D
:1027E00000F066FC2300320006992800009400F0F7
:1027F0005FFC2300320007992800009400F058FC89
:10280000049B0094103B1BB20893320023000899EC
:10281000280000F04DFC052F02DC244B204A1380D9
:102820000125039C224E283424B22B003200029949
:102830002000009500F03CFC2B00320005992000A0
:10284000009500F035FC2B00320006992000009521
:1028500000F02EFC2B00320007992000009500F0BC
:1028600027FC2B00320008992000009500F020FC86
:1028700004992B001439320009B20095200000F0B1
:1028800017FC6A46064B928C1A800BB0F0BD0123F0
:10289000074A00930299039800F00AFC23E7C04618
:1028A0001E0100109FE6000000F8FFFF8A520000A2
:1028B000E6EC0000F0B5012087B001F071FD0022C8
:1028C0009B4B1A7002F07EFAFA20000103F014FB11
:1028D000040005F0D3FA974B97491C80051C04F0BF
:1028E0005DFC002801D0FF2000E07F2002F056FAB6
:1028F0000024200005F07AFA011C281C04F058FC82
:10290000002805D020B2013402F002FAE4B2F0E768
:102910008A4B18708A4803F0EFFA431EDBB20400BA
:10292000092B00D9874C03F011FB83B204930123D8
:10293000FC271D000393FF00834B1B78002B03D063
:10294000002D01D0002C22D102F03CFA0400FA2024
:10295000000103F0D1FA0600200005F08FFA051CF3
:10296000300005F043FA011C281C04F0FDFB002890
:1029700004D1FA20E1B2000103F0C7FA20B202F05C
:10298000C7F90021080000F089FB07B0F0BD03F093
:10299000DDFAFA22049B92009B18984208D903F0B2
:1029A000D5FA83B20493694BE3185A1E9341E41A93
:1029B000012D03D0022D00D198E0BDE7039B644DAB
:1029C000002B32D0012600F039FB76421021202066
:1029D0002E8000F063FB5F4801F028FE992128203B
:1029E00000F05CFB5C4801F021FE5C482F8001F0A8
:1029F0001DFE5B482E8001F019FE582100202F801B
:102A000000F04CFB574801F01DFE574E300001F01E
:102A100019FE300001F016FE300001F013FE300008
:102A200001F010FE514801F00DFE9921302000F018
:102A300035FB4F4E3378032B02D801235B4200E075
:102A40004C4B2B8002234C4A00933021013BA420A5
:102A500000F02EFB3621182000F020FB474801F043
:102A6000E5FD1820422100F019FB33784448032B80
:102A700000D8444801F0DAFD0223434A2F80602148
:102A80000093A420013B00F013FB6621182000F006
:102A900005FB3E4801F0CAFD7221182000F0FEFA45
:102AA00002F090F97F2802DD324B2B8000E02F806E
:102AB0002F4B274D1A78042A02D1243A2A8003E0AA
:102AC000072A01D1013A1A7018780A2101F010FE84
:102AD0002F4801F0ABFD2F8002F074F900230200B3
:102AE00077217020FFF7AAFD022525E7FFF7FCFA02
:102AF000FFF7D0FA02F068FB0590002801D000250E
:102B00001AE72800FFF7E6FA061E05D002F018F9CA
:102B1000059B0C4C039308E0FFF7DCFA002800D17A
:102B20000AE7084C02F024F90396012504E7C046A1
:102B300028010010122C00100000FE421B030010A0
:102B4000A30F0000FFFF0000190300100100FFFFAA
:102B50001E0100101BE6000048E500002FE6000003
:102B600031E600003CE6000057E6000072E6000097
:102B7000282C001000F8FFFFA2EC000003E5000085
:102B80008DE6000097E60000C4EC0000A2E600001D
:102B90009FE60000012210B5084B00201A7001F0DA
:102BA000FFFB074801F090F803F0C0F903F0E4F9E7
:102BB00002F074FA03F0D0F910BDC04619030010FA
:102BC0002CD90000014B18787047C046190300103B
:102BD000F7B50024FC2725005826FF00292D48D8EA
:102BE00003F0B4F9234B1A689042F7D91E301860ED
:102BF000012D0BD0002D02D0022D22D035E01E4B2E
:102C000028001D8000F028FA01252EE0FC21E2B208
:102C1000C900002001F0CAFD184B194A18806E2324
:102C200051781078490840081C34181A711A009518
:102C30002B00A4B200F03CFAFE2C16D90024022589
:102C400013E00E4B0E4A1F806E2310785178400817
:102C5000181A49086D3B0093711A00F029FA3F34A5
:102C6000084BA4B29C4200D9FF25FFF783FA002845
:102C7000B4D0F7BDA4380010320600101E010010B9
:102C800098E70000FF03000010B57F2002F086F8EF
:102C90007F22034B1A80034B80321A7010BDC0464E
:102CA000122C001018030010F7B5FFF773FF212254
:102CB0000127FF24314B1A70314B1F60314B1C70C0
:102CC000FFF7E2FFFFF7BEF920000024FFF7BBF992
:102CD000FFF7DCF9FFF7DEF9FFF7CAF900F0D9F9E1
:102CE000FFF776FF380001F05BFB274E348000F0E1
:102CF000A5F9264D280000F0E7FF380001F050FB51
:102D0000FC22234BD2001A80348000F097F928006F
:102D100000F0DAFF1F4E204D34702F70FFF7D6FB06
:102D2000FFF7C8FD00F09EFB58232200009321000E
:102D30001633200001F0E0FB184B1C79002C02D068
:102D4000FFF7A8F9F8E7200001F02AFB0123144A55
:102D500014481370144A33702B70137000F0B4FFD2
:102D600001F052FDFFF772F90520FFF7B3F90028D3
:102D700002D0200001F0CCFFF7BDC0461A030010BE
:102D800020030010180300103206001094DF00002A
:102D90001E0100102801001022010010FB0200108B
:102DA0002301001030DC000025010010F0B51F4B9E
:102DB00085B01A780393002A36D000240B2A02D853
:102DC0000C239C1AE4B20127194B002055251F70D3
:102DD00000F0A4FB0322174EA4B231780020CB1CD4
:102DE000691A61180092513200F031FF380000F08A
:102DF00095FB032231780020CB1C691A61180092E0
:102E0000513200F0BEFE04220B4B1A803378E41AD4
:102E10000A4B57341C800A4B186801F007FC039BCF
:102E2000039A1B78013B137005B0F0BD3803001006
:102E300023010010AA030010C8050010BC050010F3
:102E40002C030010F0B589B006930EAB1B780491EB
:102E500005920793039003F079F80027214B224A4B
:102E60001B7804001B181360204A13680133136099
:102E70001F4B1F60FFF7E8F8FFF70CF9FFF7E6F8C4
:102E80001C4D1D4E2B683168581C28608C4210D98F
:102E9000FA239B005843194B611AC91803F0A4FF89
:102EA0000122174B2F601860144BE418154B346047
:102EB0001A700F4C2368002B11D101F0CFFD01F0E7
:102EC0002DFE01F01FFFFFF771FF079B059A00938E
:102ED0000499069B039801F00FFB01232360012056
:102EE00009B0F0BD1A0300103403001014030010E1
:102EF000200300102403001030030010B80B000062
:102F0000280300101C03001010B501000400FA2073
:102F1000800003F0F3FF064B14211870200003F02B
:102F200063FFC0B2002800D10130024B187010BD01
:102F30001A030010102C001010B5024800F0D6FE45
:102F400010BDC0461D03001070B50F4D06002B7854
:102F50000C00102B0BD030002C70FDF777FF041EF7
:102F60000DD13100094803F099FD20000AE008481E
:102F70000CF002F803000120002BECD002E0082343
:102F800001202B7070BDC0461C010010840300108E
:102F90003C03001013B56B469C1D2200FDF786FF15
:102FA000208816BD10B5074B002804DADA694142C3
:102FB0008A4200D25042DB69C018FDF7D9FF024BAC
:102FC000187010BD3C0300109303001010B50020D2
:102FD000FDF7CEFF014B187010BDC04693030010E3
:102FE000034B10B5186AFDF7C3FF024B187010BDF4
:102FF0003C03001093030010014BD8697047C04692
:103000003C0300100123812213B5074C5B4200935F
:103010005201064B06492000FEF7A2F9054A06496F
:103020002000FEF7F7FA13BD6C030010180C000027
:1030300024120000000100105113000010B5002000
:1030400002F09EF90023024A1380024A138010BD49
:10305000C8050010BC05001010B502F091F910BDB4
:10306000064B10B51B880F2B04D8054C5B001B5B6F
:10307000934201D002F0F0FA10BDC0462E010010BC
:10308000B403001013B504AC2488009402F014FBC0
:1030900013BD10B502F0D4F910BDFFFF024B18802C
:1030A000024B19807047C046C8050010BC050010CF
:1030B000F0B58FB00B9114A909780A900891117896
:1030C00005915178023209910092012B76D1059B2E
:1030D0000733DB100C936B461B8D0793049300237F
:1030E00003936B460C21595E059B8B4200DCF0E09C
:1030F0000723CA171A405218D21053B20A93764BBC
:103100000B4004D50822013B524213430133802275
:103110001BB21A416B469B8D0D92069302930023BE
:1031200001936B4604229B5E099A93423EDA0C9A05
:103130000A995343009A5218D35C0D9A1A422DD023
:10314000089B664C012B09D1069B019903985918DD
:10315000079B2288181809B200B21DE06B461027A1
:10316000DF5F6B4608269E5F228831003800FFF73C
:1031700077FF049B31005D1C2DB222882800FFF7E9
:103180006FFF029B22885E1C36B231003800FFF7C9
:1031900067FF310028002288FFF762FF019B01339F
:1031A0000193029B02339BB20293BAE7039B013364
:1031B0000393049B02339BB2049392E7042B00D049
:1031C00087E00023099A934200DB82E09BB20293DE
:1031D0006B469B8D00250793029B079A5B00D318D3
:1031E0009BB21AB201331BB204936B461B8D039240
:1031F00006930193059BAB4267DD009B384A1B7821
:1032000012681B115B009E5A089B022B19D1069B6A
:103210006C001C19A4B227B20134320003993800A3
:1032200024B2FFF71DFF320003992000FFF718FFBB
:10323000320004992000FFF713FF32000499380090
:1032400007E0029B079A99186B4632000420185E2B
:1032500009B2FFF705FF0F22009B1B781340204A9D
:103260005B0012689E5A089B022B1AD1069B6C00C9
:103270001C19A4B2A71C3FB20334320003993800D2
:1032800024B2FFF7EDFE320003992000FFF7E8FEBD
:10329000320004992000FFF7E3FE32000499380061
:1032A00007E0029B079A99183200019B09B2581C4B
:1032B00000B2FFF7D5FE009B023501330093019B5E
:1032C0002DB202339BB2019394E7029B01331BB2F0
:1032D00078E70FB0F0BDC046070000801E01001067
:1032E000B8050010F0B51300574A8DB014680F00F0
:1032F000627811000192F72208390A40511E8A4172
:103300000199C91052180892089922784A43511C11
:103310004B431A00A2181279053352B2099282B2B5
:103320000B9206920022E31805926A46127D0999D3
:1033300052B2914200DC7CE008991A78022903D04D
:103340000133079393B204E0991C5B7807911B0249
:10335000134300240293059B0B9A5B00D3189BB286
:103360001AB201331BB203920493019BA34257DDAF
:103370000122029B134217D0344B1B78022B07D13A
:103380006500ED19ADB2324E2BB20A9332881AE0C5
:103390006946304B18254D5F1A782D4B002A01D015
:1033A0001A882BE01A8830E02B4E2C4B32881B8871
:1033B00093422FD0254B1B78022B18D16500ED19B5
:1033C000ADB22BB20A93190003980135FFF748FEFE
:1033D0002DB232880A990498FFF742FE32882900FC
:1033E0000398FFF73DFE32882900049810E06946F3
:1033F000184B18254D5F1B78002B06D0019B290028
:10340000581EC019031B18B202E02800E11909B2C6
:10341000FFF726FE029B01345B08029364B2A4E727
:10342000059B01330593069B01339BB20693079BD3
:103430007BE700200A4B1856099BC018034B1B78EA
:1034400058430DB0F0BDC046C40500102301001064
:103450001E01001030060010320600102E01001070
:1034600028010010F8B52249224F09783B88224CE8
:10347000DAB2224E224D012903D1FE31002B2FD189
:1034800029E0022907D103231A40110093001943B0
:103490000A01114324E003291DD102391940194AB8
:1034A00000D0FF21206803F052F802233988154A22
:1034B000194023689818002900D0FF2103F047F82D
:1034C00004233988206819400F4B0E4AC018002980
:1034D00008D0FF2106E00F210B4011011943C9B2AA
:1034E000084A206803F033F8002333802B80F8BDAE
:1034F00024010010C0050010AC030010C805001026
:10350000BC050010D0250000A04B000010B50248FB
:1035100001F034F910BDC04632E40000014B1880C0
:103520007047C04626010010014B18807047C04606
:103530002E0100100A4B30B51B8893420ED0094B68
:1035400084B21B78A34209D9074C25788CB2A542D6
:1035500004D95943054B1B681818425430BDC04666
:103560002E0100102C01001030010010AC030010DF
:10357000F0B513004B4A8DB00B901068089142785B
:1035800011000492F72208390A40511E8A41049919
:10359000C91052180A920A9902784A43511C4B43A7
:1035A0001A0082181279053352B205920022C3180C
:1035B00003926A46127B059952B2914266DD0A99DE
:1035C0001A78022903D00133099393B204E0991CBD
:1035D0005B7809911B02134300936B469B8900257E
:1035E00006936B469B8D0793069B079A5B00D31847
:1035F0009BB21AB201331BB201920293049BAB42FD
:103600003FDB294B1B78022B24D10122009B6C004D
:10361000134205D0089B254EE418A4B227B204E05B
:10362000089B234EE418A4B227B2327839000198DF
:103630000134FFF77FFF24B2327839000298FFF798
:1036400079FF327821000198FFF774FF327821006A
:1036500002980EE00122089BE918009B134201D05A
:10366000124B00E0124B1A780798069B09B2181803
:1036700000B2FFF75FFF009B01355B0800936DB25E
:10368000BCE7039B01330393099B92E70020064BA1
:103690001A78084B1856059BC018022A00D1400022
:1036A0000DB0F0BDC405001023010010260100106C
:1036B000C00500102801001010B5094B82B21B781C
:1036C00093420BD9074A14788AB2944206D95943D7
:1036D000054B1B681818054B1B88435410BDC0468A
:1036E0002C01001030010010AC0300102601001066
:1036F00070B50F4B15001B788AB20600934202D8B2
:10370000AAB2934212D90B4B1A78B3B29A420DD98E
:10371000A94202DD0B0029001D000C00A54205DBBB
:1037200021B23000FFF7C8FF0134F7E770BDC04693
:10373000300100102C01001070B50F4B16001B78E3
:1037400082B20D00934202D88AB2934212D90B4B37
:103750001A78B3B29A420DD9A84202DD03002800BC
:103760001D000400A54205DB20B23100FFF7A4FFD5
:103770000134F7E770BDC0462C0100103001001085
:1037800010B5002A04DA92B25118524209B212B2AC
:103790008A1812B2FFF7ACFF10BD10B50B00002A5B
:1037A00004DA92B21018524200B212B28218013AF0
:1037B00011B21A00FFF7C0FF10BDF8B506001400E3
:1037C0000F00CB181DB234192A0024B2FFF790FF66
:1037D0002A0039002000FFF78BFF3A00300021005B
:1037E000FFF7AAFF2A0030002100FFF7A5FFF8BD70
:1037F000F8B58218CB1805000C0012B21BB20028D5
:1038000001DA002A2DDB174909788D4201DB91424C
:1038100027DD002C01DA002B23DB134909788C42C9
:1038200001DB99421DDD954202DC11002A000D00EA
:103830009C4202DC190023000C00161C002A00DA4E
:10384000002636B2191C002B00DA00210FB2AE425E
:1038500007DA3000220039000136FFF749FF36B29F
:10386000F5E7F8BD2C01001030010010F0B50300A1
:1038700085B0002879D03E4A1478A04201DB631E4F
:103880001BB23C4A1078042807D13B4A11785943AF
:10389000CA0F5118491089B20AE0022865D10321E4
:1038A000354A12785A43D51729408A18921091B296
:1038B000324A15880195324D2D8815802E4A002BED
:1038C00028DD1278E31AD508684300252E000290FF
:1038D0000393039B9D4216DA891B89B233008C4601
:1038E0006146981B80B207000298591889B2874236
:1038F00005DA244F581C795CF95483B2F0E701359E
:10390000ADB21E00E5E7204923B20020095E12B2E5
:10391000002024E01278A4B25043C010029000208E
:103920009DB20394039CAC4216D9401A80B20C009D
:1039300084466046661AB6B23700029E001980B20D
:10394000B74205DA0F4F661C385C3855B4B2F0E761
:103950000135ADB22100E5E70021080012B2FFF702
:1039600047FF6A46054B92881A8005B0F0BDC046F5
:1039700030010010240100102C010010260100105D
:10398000C005001037060010BC050010F0B587B068
:1039900004936B46012400921B880290E21AA34014
:1039A0005B4212B21BB2039101920593631E009A0F
:1039B0001BB29A4267DD019B002B0CDB1300013B1D
:1039C0001BB20093059B02339BB21AB20592019A77
:1039D0009B181BB20193019A630001339B180422C8
:1039E0001BB20193049B13420FD06B461F899D8924
:1039F0001E883819A91909B200B22D19BE19FFF78E
:103A00005BFE29B230B2FFF757FE0222049B13423D
:103A10000FD06B461F899D891E88E019A91B09B22A
:103A200000B2FFF749FEBE19291B09B230B2FFF7F9
:103A300043FE049B1B070FD56B461D891F889E897B
:103A4000E81BA11909B200B2FFF736FEBE19281B08
:103A500031B200B2FFF730FE049BDB0702D4013421
:103A6000A4B2A3E76B461D891F889E89E81B311B02
:103A700009B200B2FFF720FEF61B281B31B200B2DC
:103A8000FFF71AFEEBE707B0F0BDF0B58BB01600FC
:103A9000089393B201220790D01A93405B421BB265
:103AA00006938BB20493013B9BB2029310AB1B882D
:103AB00000B2059302339BB201930023009003935D
:103AC0000992039BB3425ADA009B002B0ADB069B48
:103AD000013E02339BB21AB20692009A36B29B188C
:103AE0001BB20093039C009A0134A4B223B2039347
:103AF000630001339B181BB20093099A089B134281
:103B000017D06B46B5B29F8B059B6A009A18049B31
:103B10003819591B12B209B200B2FFF731FE6B46D9
:103B200004229A5E6B467D190821595E28B2FFF780
:103B300027FE0222089B134208D1029B013B9BB245
:103B40000293019B02339BB20193BAE76B46B7B273
:103B50009D8B059B7A009A18049B281BD91B12B2D7
:103B600009B200B2FFF70CFE6B4604229A5E6B4668
:103B7000ED1B0821595E28B2FFF702FEDDE70BB00E
:103B8000F0BDF0B587B01F000CAB00241C5F0190A6
:103B90000E00012C03DC3B00FFF70FFE55E06B46E7
:103BA0009B88A1B202935B181BB2009393B203935C
:103BB0004B009BB20493049A039B31009D1A2DB2D3
:103BC0002A000098BFB2FFF7E8FDB6B27B1EF318DB
:103BD0009BB205936B462A001421595E0098FFF7AB
:103BE000DCFDA3B29E19049B36B2FF1A3FB231002E
:103BF0003A000198FFF7C4FD039B31005D1E029B54
:103C00003A005D19ADB228B2FFF7BAFD31000123C9
:103C100022000098FFF7BAFEA3B2ED1A2DB23100D0
:103C2000022322002800FFF7B1FE059BA2B29E1AD4
:103C300036B20423220031002800FFF7A7FE082334
:103C4000220031000098FFF7A1FE07B0F0BDF0B5EB
:103C500087B00C000CA900268E5F012E03DC21002A
:103C6000FFF7C6FD2DE0B7B281B292B27D0004929B
:103C70000291AAB2C919059209B20391049A059951
:103C8000013B9DB2521A2BB2210012B20398FFF7EA
:103C9000AFFD059B3C19ED1A049B24B2581E029BF4
:103CA0002DB21818C01B00B201233200210000956C
:103CB000FFF7EBFE00950223320021000398FFF787
:103CC000E4FE07B0F0BDFFFF054B064A186003781D
:103CD000013313704378044A013313707047C046B0
:103CE000C40500102D060010AA030010124A134B41
:103CF00010B504001A60FFF709FC0122104B1148AF
:103D00001A70114BDB321A80104B2C3A1A80FFF7D5
:103D1000DBFF11220E4B08211A8000230D4A2000E0
:103D200013800D4A11700D4A13600D4A13609361A0
:103D30001363936410BDC04637060010AC03001037
:103D40002C0600102CD90000B2030010CA05001088
:103D50002E010010C0050010B0030010B4050010C3
:103D6000CC050010F0B58FB000935B4204000D004D
:103D70001700994200DAE0E2D24B1A78914200DD56
:103D8000DBE27B42984200DAD7E2CF4B1B789842C5
:103D900000DDD2E2CD490978012936D80026FB1D85
:103DA000DB10029331B2B94200DBC6E20723CA1727
:103DB0001A405218D3100393C54B0B4004D5082268
:103DC000013B52421343013380221BB21A410023AC
:103DD000049201936B4604229B5E009A934212DA8E
:103DE000029A03995343149A5218D35C049A1A42C4
:103DF00006D0019BA019E91809B200B2FFF75CFCDC
:103E0000019B0133E5E70136CCE7022900D0B8E099
:103E1000B04B00229A5E002A6CDDAF4B061C0021DD
:103E20005B5E81B20191984200DA1E1CA1B2761A43
:103E3000AA49E4190020095E36B2CB18A34200DD7E
:103E4000230001995B1A1BB20393A54B00215B5E13
:103E5000A9B20291291C9D4200DA191CA8B2091AC4
:103E600009B2049100999B186D18AB4200DD2B003C
:103E7000029A9B1A1BB20093BB100593039B9E42B0
:103E800000DB5AE20322F31713409B19954C9B1059
:103E90000693344004D50423013C5B421C430134A7
:103EA000C02324B26400234106275BB2049D07931C
:103EB000009B9D421BDA149B069A9A18059B6B4344
:103EC000D35C079A13403A1B1341874A9BB212886E
:103ED0009A4209D0854A1380029B5919019B09B265
:103EE000981900B2FFF7E8FB01352DB2E0E7013683
:103EF00036B2C3E7BB100493002301936B46042240
:103F00009A5EBA4200DB18E2764B134004D50421D6
:103F1000013B49420B4301331BB25B000393C023B7
:103F20000399D6170B415BB2059303231E40B618C5
:103F3000149BB6109B1900260293009A33B29A4242
:103F40001CDD029B059A1B78039913400622521A26
:103F50001341654A9BB212889A4208D0634AA91954
:103F60001380019B09B2E01800B2FFF7A5FB049A89
:103F7000029B9446634401360293DEE7019B0133C2
:103F8000BBE7032974D10722FB1DDB100893009BBC
:103F90000D927B43D9171140CB18DB101BB206934F
:103FA000009B0099DB1713405B18DB100993069BFD
:103FB0005B000A93002301936B4604229B5EBB4285
:103FC00000DBBAE10D99DA170A40D318DB1002932F
:103FD000029A0A9B944663440B93ABB21E000C9367
:103FE0000C9B099AF31A1BB29A423DDB089A02997C
:103FF0005343149A0698D218515C00960391149971
:104000000918CB1802995B5C04930B9BD35C059356
:10401000330008339BB20793049B04215A00022308
:104020001A40059B9B000B401A43012303990B4048
:104030001A434B080393049B5B080493059B5B089E
:1040400005936B460021595E019B181900B2FFF7DA
:1040500071FA009B01339BB20093009A079B934235
:10406000DAD10136B6B2BBE7019B01330193A3E776
:10407000042900D0FCE000996918002D08DA0AB282
:1040800000927A105543149A521B1492002506E0B0
:104090008A4204DA00995218521B12B20092002C84
:1040A00026DAA2B2644264105000D21917B222B2CA
:1040B0000392149A022112190024084002901492CB
:1040C00004942BE0300100102C010010B00300100C
:1040D000070000802A0100102E06001020010010A9
:1040E00034060010030000802E010010260100108D
:1040F000E21993420EDA022061000140029101218F
:10410000D21A21405210521812B203921A1B049173
:1041100017B203E000220492039202925B106B43F9
:1041200062109B18864A0F2612680695D318012242
:10413000224001930892009B069A9A18954200DB50
:10414000FBE0804A1278954200DBF6E0089B002BEA
:1041500005D0029B3A19D31A2100079374E020007E
:10416000029B3A19D31A0793079B98422ADA149BA9
:104170001A78029B002B05D0149B12015978091163
:104180000A43D2B2019B19786F4B1B880593131118
:104190009C46059B9C4503D013003140B343194313
:1041A000059B3240934202D0B1431143C9B2019BF7
:1041B00002301970149B00B201331493019B013338
:1041C0000193D1E7029B002B41D001231F420CD069
:1041D000149B5D491A78098810003040884204D049
:1041E000019B120119780A431A70149B013314932E
:1041F000019B013301932AE0149B1A78019B1878E4
:1042000013119C46504B1B880593059B9C4502D07F
:104210006346B0431843019B18700133019318782B
:10422000494B1B880593130033409C46059B9C45D6
:1042300003D0304012011043C0B2019B023118700C
:10424000149B09B201331493079B9942D4DB039A60
:10425000149B94463D4A634412781493D21B049BEA
:104260005210D218019B01359B1801932DB262E7C1
:10427000082962D100996918002D07DA7D430AB236
:104280000092149A521B1492002506E08A4204DA26
:1042900000995218521B12B20092002C09DAA4B2F3
:1042A000E2191499644217B222B2891814910024B9
:1042B0000AE0E219934209DA98B2A1B23A1A8A18CE
:1042C0008A18411A12B20FB2200001E00020020049
:1042D0006B431B491B190968CB18009949190191B7
:1042E000E119029101998D4227DA164909788D4228
:1042F00023DA2100029EB14214DA149E3678B446C5
:104300001E780096104E3688664501D066460096A7
:104310006E46367801311E70149E013301361496B4
:1043200009B2E7E7149901358918149107492DB2AC
:104330000978C91B09185B18D4E70FB0F0BDC04657
:10434000AC030010300100102E0100102C010010F1
:1043500037B51578941C53782A000094FFF702FDB6
:1043600037BDFFFF10B5084B09B21B6800B29B7840
:10437000D21A064BD2B21B78002B02D0FEF7B2FF46
:1043800001E0FFF7F5F810BDC40500102C06001081
:10439000024B1878431E9841C0B270472C0600109B
:1043A00009490A4A0A4B002805D001200870DC217F
:1043B0001180B02205E00870064909781180064A8C
:1043C00012781A807047C0462C060010B203001005
:1043D000CA0500102C0100103001001010B50B4C64
:1043E0000B490023E25E0B4B09881B685B78580081
:1043F000091A0948007840B28A4203DDC018FFF765
:1044000035FA02E0C3189B18238010BDBC050010CC
:10441000CA050010C40500102201001070B52B4B16
:1044200004001A68D378002B03D0602801D9203CFF
:10443000E4B20E2C21D8200002F0CCFC461F1F1F36
:104440001F1F1F1F0E1F081F1F1B46000022204B8F
:104450001A80FFF7C3FF37E01D4910780B88202230
:10446000181A1C4B80B208801978C0B2FFF77AFF87
:104470002AE00022164B1A8026E0154D1278002300
:10448000E85E154B1B889B1A98420BDB00232B80A0
:10449000124B1B78002B17D0FFF7A0FF0D4B28788D
:1044A000197802E00B4BC0B219782200FFF75AFFCF
:1044B000202C06D10A4B1B785BB2002B01D0401098
:1044C00001302B881818288070BDC046C405001024
:1044D000C8050010BC050010B20300102501001033
:1044E0002801001010B504002078002803D0013402
:1044F000FFF794FFF8E710BDF0B58DB0002809D1A3
:10450000364B374A374938481B78127809680068B3
:1045100001F036F9354B1B78002B01D1FEF7A2FFD5
:10452000334B1B78002B56D0324B334F1B78334D17
:104530005A1E9341DBB20793314B32491B8808A8BE
:104540000193314B00241B88012602932F4B1B88BB
:1045500003933B7804930023EB5605932C4B1B6885
:1045600006932C4B1A6802F077FA0123244A5B4227
:104570001380254B28481C80244B3E701E802C70D5
:10458000FFF7A2FBDC221B4B08A81E70234B1A80EE
:10459000234B2C3A1A80234B1C80234B1C80FFF7A3
:1045A000A1FF0798FFF7FCFE6A46154B9288069814
:1045B0001A806A46144B12891A806A46134B9289F4
:1045C0001A806B461B7C3B706B461B7D2B70FFF784
:1045D0007BFB074B1C700DB0F0BDC046BE05001044
:1045E000BF050010B8050010AC030010A9030010AF
:1045F0001C0300102C0600103006001028010010CB
:104600001E010010EDE600002E0100103206001021
:10461000C40500102803001030DC0000B2030010B5
:10462000CA050010C8050010BC05001010B5FFF742
:1046300059FF10BD10B50D20FFF7F0FE0A20FFF75F
:10464000EDFE10BD10B5FFF74DFFFFF7F3FF10BDF6
:10465000024B1880024B19807047C046C8050010F5
:10466000BC0500100023F0B5050089B00E0098428B
:1046700003D13020FFF7D2FE1CE05C1C28006B4405
:1046800031001F0002F036FC28003970310002F0C2
:10469000ABFB2300051EF0D16B46013C1B5D1800EF
:1046A0003730C0B2092B01D83033D8B2FFF7B6FE8D
:1046B000002CF1D109B0F0BD10B5041E03DA2D2095
:1046C000FFF7ACFE64420A212000FFF7CBFF10BDCC
:1046D00010B5002903D1C0B2FFF7A0FE07E00A29F8
:1046E00002D1FFF7E9FF02E0C9B2FFF7BBFF10BD3F
:1046F00010B5FFF7EDFF10BD10B5044C2080044845
:10470000018019001000FFF7E3FF10BDC80500107D
:10471000BC05001010B5002903D1C0B2FFF77EFE22
:1047200002E0C9B2FFF79EFF10BD10B5FFF7F2FF20
:10473000FFF780FF10BDFFFF10B50248FDF7B4FD85
:1047400010BDC046360600108021002310B5054A72
:104750008900C45AD45202338B42FAD1024B1A60F8
:1047600010BDC046B4030010B805001089104901FF
:10477000D210C0100A43C00210437047F8B580271A
:1047800004000025074E7F00A27861782078FFF7AB
:10479000EDFF6B000135F0520334BD42F4D1024B02
:1047A0001E60F8BDB4030010B805001070B51F24DA
:1047B000050025400C40641B23B253431B12EB1829
:1047C0003F2544114E112C40C00A3540C9122D1B03
:1047D000091A55434A4312122D1280181BB264194C
:1047E000021C002800DA002212B2D202181C002B90
:1047F00000DA00201043231C002C00DA00231BB237
:104800005B01184380B270BD10B501F035FA01208C
:1048100001F088F910BDFFFF00B5002B3CD1042842
:104820003AD802F0D7FA030E242B3200002349B203
:10483000994204DB0B1C0A2900DD0A23DBB2174A6C
:1048400013E0174B89001B68164ACB5816481360B3
:104850001B88164A11781A004A43D2B202701B1202
:10486000934200DD13004B43114A137014E00F4BC9
:104870001B7859430F4B19700F4B0CE00B4B1B78F7
:1048800059430E4B19700E4B05E0084B1B785943EA
:104890000C4B19700C4B1A7000BDC0460A2C00104E
:1048A000342C00101C2C0010202C0010102C001098
:1048B000392C0010232C0010452C0010482C00101F
:1048C0002D2C00102A2C00102E2C0010002A11D1A3
:1048D000094B1870094B1B785943094B1970094B48
:1048E00009491A70094B1A8001230B7008490B7093
:1048F000084B1A707047C046082C0010102C00108E
:10490000162C0010072C0010462C0010302C001024
:10491000172C00100D2C001010B50024084B1B782C
:10492000A34201D0074B1C78074B084A1B78D35C85
:104930005C43240AE0B201F00FF9054B1C8010BD66
:10494000172C0010382C0010282C001020ED00002F
:104950005E37001010B500280FD1084B1870084BB7
:104960001870084B1880084B1870084B1870084BCB
:104970001870084B1870FFF7CFFF10BD462C0010C1
:10498000162C0010302C00100D2C0010382C0010AC
:10499000442C0010172C001010B5041E03D1FFF793
:1049A000D9FF014B1C7010BD0B2C001070B5050019
:1049B0000C1E12D10800FFF7EFFF0122074B1D600C
:1049C000074B1C80074B1A70074B08321A70074BB5
:1049D0001C70074B1C70074B1C7070BD402C0010E6
:1049E0000E2C00100B2C00100A2C0010232C001091
:1049F000482C00102A2C001010B500281FD1104A96
:104A00001378002B1BD00F4B1978002917D10E4CAF
:104A10000E48237800685B001B5A0D48834201D181
:104A200011700CE00B4A181210700B4ADBB21268BE
:104A30009B009858FFF7BAFF23780133237010BD0D
:104A40003A2C00100B2C00100C2C00103C2C0010E9
:104A5000FFFF0000182C0010242C001010B50020BF
:104A6000FFF7CAFF10BDFFFFF8B5002848D1254A5F
:104A70001378002B44D0244B1B78002B40D1234CBF
:104A8000234D238828685B00195A002912D1214B35
:104A90001B78002B02D0218001880BE01E4B117087
:104AA0001878002809D00800FFF7A6FF23882A6895
:104AB0005B00995A01271F2602E0FFF74BFF1FE01A
:104AC0000A008B103A4013D08811C9120A00010065
:104AD0000F20103A52B2314018400023FFF79CFEDD
:104AE00023882A6801339BB223805B00995AE7E749
:104AF0003F20090A1840FFF7E9FE2388013323808D
:104B0000F8BDC0460B2C0010162C00100E2C001007
:104B1000402C00102C2C00103A2C001010B5002056
:104B2000FFF7A2FF10BDFFFFF7B5002800D0ABE0F4
:104B3000564B1B78002B00D1A6E0554B1878002867
:104B400002D1FFF707FF9FE0524C0138187023781D
:104B5000002B26D1504D51482B885A1C504B5100E8
:104B60001B68CB5A0721194001704E4998120870F2
:104B70004D4899050078890E41431B0721704B4928
:104B8000DB0F0B7093B24A4A2B801278934208D302
:104B9000484B1878002802D0121A2A8001E0FFF74B
:104BA000D9FE2378013B2370434B444C1D780135DB
:104BB0006DB21D70424B1B7801933A4B1E78019BDE
:104BC0009E19404B1B78F6183F4BF6B219782670A9
:104BD000002907D0280002F091F93C4B1B7858437C
:104BE0003618267020782421243002F06DFA002730
:104BF00021700E000021364B364CDF57364B2770A4
:104C00005956002907D0280002F078F9334B1B7859
:104C100058433F182770324B1978002910D02800CC
:104C200002F06CF92F4B184004D5022301385B4287
:104C3000184301302C4B1B7858432378C018207040
:104C4000019B3F2B0AD02278131C52B2092A01DDA6
:104C5000092304E01A0602D5002300E00023237094
:104C6000224B9A5D224B1A700C4A237812785343D8
:104C7000204A12785A43204B1B885B1153431F4A2A
:104C8000DBB213701E4A1370F7BDC046462C0010ED
:104C9000162C0010072C0010302C0010142C0010C3
:104CA0001C2C0010472C0010102C0010152C00108C
:104CB000202C0010392C00100D2C00102B2C001073
:104CC000082C0010182C0010482C00102D2C00105F
:104CD0000A2C0010222C0010232C0010452C001050
:104CE0002A2C0010010000802E2C0010ECEC00009B
:104CF000212C0010092C0010122C0010442C001044
:104D0000382C001010B50020FFF70EFF10BDFFFF7C
:104D100010B5021C002800DA0022064913B20A80EE
:104D2000054A5B111370054ADBB2D05C00F0DAFE75
:104D300010BDC046122C0010282C001018ED0000E9
:104D400010B5084B1A780132D2B2072A00D90722CF
:104D50001A701B78044AD05C044B188000B2FFF72D
:104D6000D7FF10BD282C001010ED0000122C0010F1
:104D700010B5074B1A78002A01D0013A1A701B7837
:104D8000044AD05C044B188000B2FFF7C1FF10BD8D
:104D9000282C001010ED0000122C001010B5002877
:104DA00003DBFF2802DDFF2000E00020034B18801A
:104DB000034B0020185EFFF7ABFF10BD320100105F
:104DC000122C0010014B18887047C046122C00109E
:104DD00010B50248FDF768FA10BDC046292C001036
:104DE000074B10B5596A1F23CA05120F1940054B0E
:104DF000920001314900D05801F0F6FF10BDC046C5
:104E00000080044028ED0000064B186C0323184076
:104E1000012804DD033843425841C00300E0024842
:104E20007047C04600800440001BB700044B10B51B
:104E30009C68FFF7E9FF1F2323400133584310BD4F
:104E4000008004400A4B10B51A6F03231340022B55
:104E500006D0032B07D0012B08D1FFF7D5FF06E0C2
:104E6000FFF7BEFF03E0FFF7E1FF00E0014810BDE0
:104E700000800440001BB70010B5FFF7E3FF024BB2
:104E8000996F01F0B1FF10BD008004400122014B79
:104E90001A717047E12D00100022014B1A71704702
:104EA000E12D00100122014B5A717047E12D0010D5
:104EB0000022014B5A717047E12D00100122014B75
:104EC0009A717047E12D00100022014B9A717047D2
:104ED000E12D00100122014B5A707047E12D0010A6
:104EE0000022014B5A707047E12D00100122014B46
:104EF000DA707047E12D00100022014BDA70704724
:104F0000E12D00100022014B9A707047E12D001036
:104F10000022014B1A707047E12D001010B5054BAF
:104F20009A79002A02D0FFF70BFF01E001229A7064
:104F300010BDC046E12D001010B5054B9A79002A2E
:104F400002D0FFF715FF01E001221A7010BDC04624
:104F5000E12D001010B50448FCF734F90122034B91
:104F60001871034B5A6210BDE82D0010E12D00109E
:104F7000004000A010B50448FCF724F90222034BBE
:104F80005871034B5A6210BD382E0010E12D0010ED
:104F9000004000A010B50448FCF714F90422034BAC
:104FA0009871034B5A6210BD4C2C0010E12D00107B
:104FB000004000A010B50448FCF704F90822034B98
:104FC0005870034B5A6210BD902D0010E12D001057
:104FD000004000A010B50448FCF7F4F81022034B81
:104FE000D870034B5A6210BD9C2C0010E12D0010AC
:104FF000004000A070B50F48FCF7E4F80E4CA0711B
:105000000E48FCF7DFF8A379C0B220700C4D002BDE
:105010000AD0002808D02B78002B01D1FFF7A8FE7A
:1050200000232370013300E0002320222B70054B66
:105030005A6270BD4C2C0010E12D0010F02C0010B5
:10504000E02D0010004000A070B50F48FCF7BAF842
:105050000E4CA0710E48FCF7B5F8A379C0B2A07051
:105060000C4D002B0AD0002808D02B78002B01D142
:10507000FFF766FE0023A370013300E00023402207
:105080002B70054B5A6270BD4C2C0010E12D0010A6
:10509000402D0010E02D0010004000A010B52E4C57
:1050A0002E492000FCF7A2F820002D49FCF78FF8CC
:1050B0002C4C2D492000FCF799F820002B49FCF7D7
:1050C00086F82B4C2B492000FCF790F820002A4949
:1050D000FCF77DF8294C2A492000FCF787F82000CE
:1050E0002849FCF774F8284C28492000FCF77EF882
:1050F00020002749FCF76BF8264C27492000FCF7D5
:1051000075F820002549FCF762F8254C2549200058
:10511000FCF76CF820002449FCF759F823490020DB
:10512000FCF7B4F922490120FCF7B0F9214902202B
:10513000FCF7ACF920490320FCF7A8F91F4904202B
:10514000FCF7A4F91E490520FCF7A0F91D4906202B
:10515000FCF79CF910BDC046E82D0010994E0000E8
:105160008D4E0000382E0010B14E0000A54E0000FC
:105170004C2C0010C94E0000BD4E0000902D0010B8
:10518000E14E0000D54E00009C2C0010F94E0000AE
:10519000ED4E0000F02C0010114F0000394F0000C0
:1051A000402D0010054F00001D4F0000554F00001E
:1051B000754F0000954F0000B54F0000D54F00001F
:1051C000F54F000049500000014B18797047C04668
:1051D000E12D0010014B58797047C046E12D0010B9
:1051E000014B98797047C046E12D001070B52648F4
:1051F000FEF77CFD254E26493000FBF7BFFF254D0D
:10520000254C2A0021003000FCF704FA234E2449E3
:105210003000FBF7B3FF2A0021003000FCF7FAF959
:10522000204E21493000FBF7A9FF2A002100300061
:10523000FCF7F0F91D4E1E493000FBF79FFF2A00D6
:1052400021003000FCF7E6F91A4E1B493000FBF74D
:1052500095FF2A0021003000FCF7DCF9174E1849B1
:105260003000FBF78BFF2A0021003000FCF7D2F959
:10527000144E15493000FBF781FF2A003000210051
:10528000FCF7C8F970BDC046EC2C0010E82D0010EA
:10529000841201000001001025110000382E0010BA
:1052A000700801004C2C001088140100902D001093
:1052B000941A01009C2C00106C060100F02C0010C8
:1052C000C4320100402D00107C0E0100A023054ACD
:1052D00005491B0699500549C000585000219950B6
:1052E0007047C046882000000700F8FF88210000B2
:1052F00070B58A23A024042224069B01E250802357
:10530000064D5B046351FFF7E1FF8023044A5B0114
:10531000A350C046C046635170BDC0460422000081
:105320008422000070B58823A024042224069B0157
:10533000E2508023054D5B046351FFF7C7FF8023D4
:10534000034A5B01A350C046635170BD04220000B4
:105350008422000010B5074C07492000FCF71AFC16
:1053600020000521FCF7F5FB04492000FCF7CEFBEB
:1053700010BDC046882E0010FC0402009A99993E88
:1053800010B504002020FFF7B3FF0020FFF7CAFF8D
:105390002120FFF7ADFF0020FFF7C4FF2220FFF719
:1053A000A7FF2000FFF792FFA023882204211B06FD
:1053B000920199508021074A49049950802106485A
:1053C0004901064C99501951C0460138995000289E
:1053D000F9D110BD04220000409700008422000093
:1053E00010B52020FFF784FF0020FFF79BFF21204E
:1053F000FFF77EFF0020FFF795FF2220FFF778FFE1
:105400000020FFF763FFA023882204211B069201DE
:1054100099508021074A4904995080210648490142
:10542000064C99501951C046013899500028F9D1BD
:1054300010BDC046042200004097000084220000F6
:1054400070B5A0250124784E2D06FFF783FFAC51DF
:105450000A20FCF714F8754B0A20EC50FCF70FF803
:10546000AC510A20FCF70BF82000FFF741FF8E201B
:105470004000FFF757FF0220FFF73AFF802040006F
:10548000FFF750FF0320FFF733FF6948FFF74AFF9C
:105490000820FFF72DFF6748FFF744FF0C20FFF7B8
:1054A00027FF0020FFF73EFF0F20FFF721FF20001E
:1054B000FFF738FF2020FFF71BFF0020FFF732FF28
:1054C0002120FFF715FF0020FFF72CFF1020FFF72A
:1054D0000FFF0020FFF726FF1120FFF709FF8020B4
:1054E0004001FFF71FFF0A20FBF7C9FF3020FFF73D
:1054F000FFFE0020FFF716FF3120FFF7F9FEDB204B
:10550000FFF710FF3220FFF7F3FE0020FFF70AFF3E
:105510003320FFF7EDFE0020FFF704FF3420FFF7F4
:10552000E7FEDB20FFF7FEFE3520FFF7E1FE00205F
:10553000FFF7F8FE3620FFF7DBFEAF20FFF7F2FEA5
:105540003720FFF7D5FE0020FFF7ECFE3820FFF7ED
:10555000CFFEDB20FFF7E6FE3920FFF7C9FE002073
:10556000FFF7E0FE0A20FBF78AFFFF20FFF7C0FEEF
:105570000320FFF7D7FE5020FFF7BAFE2E48FFF7B3
:10558000D1FE5120FFF7B4FE2C48FFF7CBFE52208E
:10559000FFF7AEFE2A4D0520FFF7C4FE5320FFF7AC
:1055A000A7FE2800FFF7BEFE5420FFF7A1FE254806
:1055B000FFF7B8FE5520FFF79BFE234C0320FFF7B3
:1055C000B1FE5620FFF794FE2000FFF7ABFE5720F8
:1055D000FFF78EFE1D48FFF7A5FE5820FFF788FE57
:1055E0002800FFF79FFE5920FFF782FE2000FFF7FB
:1055F00099FEB020FFF77CFE1548FFF793FEFF20D1
:10560000FFF776FE0020FFF78DFE0720FFF770FE04
:105610001048FFF787FEC820FBF731FF2220FFF775
:1056200067FEFFF7DDFE70BD04220000842200004B
:10563000301000000808000003020000090A000002
:10564000211000000206000003070000070500000B
:105650000125000017100000F8B584B21500DB2CFE
:1056600025D88EB2AF2E22D82020FFF741FE300081
:10567000FFF758FE2120FFF73BFE2000FFF752FE08
:105680002220FFF735FEA0248823042224069B0154
:10569000E25080278023064E5B047F01A35128003F
:1056A000A751FFF713FE034BE750C046A751F8BDC3
:1056B0000422000084220000F0B587B00CAC2488DE
:1056C0000494904202DD040010002200994202DDA1
:1056D0000C0019002300DC284CDCB0294ADC141C27
:1056E000DC2A00DDDC2422B203921A1CB02B00DD80
:1056F000B02213B20293061C002800DA002636B24C
:105700000C1C002900DA0024A02524B22D06039BDE
:105710009E422FDC2020FFF7EBFDA0B2FFF702FE38
:105720002120FFF7E5FDB3B218000193FFF7FAFD62
:105730002220FFF7DDFD882204239201AB50802751
:10574000802226000C4B52047F01EA50EF50059353
:10575000029B9E420ADA0498FFF7B8FD074BEF5010
:10576000C046059B0136EF5036B2F1E7019E013687
:1057700036B2CCE707B0F0BD04220000842200005E
:10578000F0B556464D465F46E0B4874C1600A5443A
:10579000029104001D1E00D0ABE00320FFF7A8FD1E
:1057A0008248FFF7BFFD2020FFF7A2FD2800FFF78A
:1057B000B9FD2120FFF79CFD0120FFF7B3FD22205A
:1057C000FFF796FDA023882204211B069201995021
:1057D0008021774A4904995080214901995075499F
:1057E000754AAC469950002304AF1A00190073485B
:1057F000029DBA460122120393466E21227832445A
:10580000D3B25B00EA5AD20002605B46C36704C7AA
:10581000FC228350C3670134835022783244D3B2D0
:105820005B00EA5AD20002605B46C36704C7FC22F1
:105830008350C367013483500239DFD157466E214C
:105840005A4608CF0360C267FC23C250C2670139C1
:10585000C25008CF0360C267FC23C250C26701393F
:10586000C25008CF0360C267FC23C250C26701392F
:10587000C25008CF0360C267FC23C250C26701391F
:10588000C25008CF0360C267FC23C250C26701390F
:10589000C25008CF0360C267FC23C250C2670139FF
:1058A000C25008CF0360C267FC23C250C2670139EF
:1058B000C25008CF0360C267FC23C250C2670139DF
:1058C000C25008CF0360C267FC23C250C2670139CF
:1058D000C25008CF0360C267FC23C250C2670139BF
:1058E000C250AED157460122582394449C4584D1DE
:1058F000D2E0012B6AD10320FFF7FAFC2B48FFF717
:1059000011FD2020FFF7F4FC0020FFF70BFD212004
:10591000FFF7EEFC0020FFF705FD2220FFF7E8FC73
:10592000A0228823042112069B01D1508023204904
:105930005B04535080235B0153501E481E49505056
:105940001F4A2049A21803922000002205780F2741
:10595000029E2D096D00AD5B04AEED009551174E12
:10596000B4463560184D0B602B600B602B600678D9
:1059700001303E40029F7600F65BF600019604AED1
:105980009719019E08327E6067463E600B602B606F
:105990000B602B60DC256D00AA42D7D1039A373407
:1059A000A242D1D178E0C04680FCFFFF3810000051
:1059B000042200000700F8FF88200000882100A0D2
:1059C00099250000842200A0042200A0022B63D1AC
:1059D0000320FFF78DFC3448FFF7A4FC2020FFF7DD
:1059E00087FC0020FFF79EFC2120FFF781FC0020B0
:1059F000FFF798FC2220FFF77BFCA02288230421DC
:105A000012069B01D150802328495B045350802308
:105A10005B015350264827495050274A2748A2186F
:105A200003923722944605A9A44403272278029DB5
:105A300092095200525B0D1FD2002A60204E214D68
:105A4000326003602B60227812113A40029F5200AC
:105A5000D25B0327D2000A60326003602B60227899
:105A600092103A40029F5200D25B0327D2004A6054
:105A7000326003602B60227801343A40029F52006A
:105A8000D25BD2008A603260103103602B606445C3
:105A9000CBD1039AA242C4D1E0239B009D441CBCFD
:105AA00091469A46A346F0BD38100000042200003B
:105AB0000700F8FF8820000099250000842200A03C
:105AC000882100A0042200A070B504000D00182257
:105AD000002100F03CFD29002000FBF71EFB200008
